{"src/contracts/DVoting.sol":{"DVoting":{"abi":[{"anonymous":false,"inputs":[{"indexed":false,"internalType":"string","name":"fullname","type":"string"},{"indexed":true,"internalType":"address","name":"voter","type":"address"},{"indexed":false,"internalType":"uint256","name":"timestamp","type":"uint256"}],"name":"Voted","type":"event"},{"inputs":[{"internalType":"uint256","name":"id","type":"uint256"}],"name":"contest","outputs":[],"stateMutability":"nonpayable","type":"function"},{"inputs":[{"internalType":"string","name":"image","type":"string"},{"internalType":"string","name":"title","type":"string"},{"internalType":"string","name":"description","type":"string"},{"internalType":"uint256","name":"startsAt","type":"uint256"},{"internalType":"uint256","name":"endsAt","type":"uint256"}],"name":"createPoll","outputs":[],"stateMutability":"nonpayable","type":"function"},{"inputs":[{"internalType":"uint256","name":"id","type":"uint256"}],"name":"deletePoll","outputs":[],"stateMutability":"nonpayable","type":"function"},{"inputs":[],"name":"getAllPolls","outputs":[{"components":[{"internalType":"uint256","name":"id","type":"uint256"},{"internalType":"string","name":"image","type":"string"},{"internalType":"string","name":"title","type":"string"},{"internalType":"string","name":"description","type":"string"},{"internalType":"uint256","name":"votes","type":"uint256"},{"internalType":"uint256","name":"contestants","type":"uint256"},{"internalType":"bool","name":"deleted","type":"bool"},{"internalType":"address","name":"director","type":"address"},{"internalType":"uint256","name":"startsAt","type":"uint256"},{"internalType":"uint256","name":"endsAt","type":"uint256"},{"internalType":"uint256","name":"timestamp","type":"uint256"}],"internalType":"struct DVoting.PollsStruct[]","name":"","type":"tuple[]"}],"stateMutability":"view","type":"function"},{"inputs":[{"internalType":"uint256","name":"id","type":"uint256"}],"name":"getPoll","outputs":[{"components":[{"internalType":"uint256","name":"id","type":"uint256"},{"internalType":"string","name":"image","type":"string"},{"internalType":"string","name":"title","type":"string"},{"internalType":"string","name":"description","type":"string"},{"internalType":"uint256","name":"votes","type":"uint256"},{"internalType":"uint256","name":"contestants","type":"uint256"},{"internalType":"bool","name":"deleted","type":"bool"},{"internalType":"address","name":"director","type":"address"},{"internalType":"uint256","name":"startsAt","type":"uint256"},{"internalType":"uint256","name":"endsAt","type":"uint256"},{"internalType":"uint256","name":"timestamp","type":"uint256"}],"internalType":"struct DVoting.PollsStruct","name":"","type":"tuple"}],"stateMutability":"view","type":"function"},{"inputs":[{"internalType":"uint256","name":"id","type":"uint256"}],"name":"listContestants","outputs":[{"components":[{"internalType":"uint256","name":"id","type":"uint256"},{"internalType":"string","name":"image","type":"string"},{"internalType":"string","name":"fullname","type":"string"},{"internalType":"address","name":"voter","type":"address"},{"internalType":"uint256","name":"votes","type":"uint256"},{"internalType":"address[]","name":"voters","type":"address[]"}],"internalType":"struct DVoting.VoterStruct[]","name":"","type":"tuple[]"}],"stateMutability":"view","type":"function"},{"inputs":[{"internalType":"string","name":"image","type":"string"},{"internalType":"string","name":"fullname","type":"string"}],"name":"register","outputs":[],"stateMutability":"nonpayable","type":"function"},{"inputs":[{"internalType":"uint256","name":"id","type":"uint256"},{"internalType":"string","name":"image","type":"string"},{"internalType":"string","name":"title","type":"string"},{"internalType":"string","name":"description","type":"string"},{"internalType":"uint256","name":"startsAt","type":"uint256"},{"internalType":"uint256","name":"endsAt","type":"uint256"}],"name":"updatePoll","outputs":[],"stateMutability":"nonpayable","type":"function"},{"inputs":[{"internalType":"address","name":"","type":"address"}],"name":"users","outputs":[{"internalType":"uint256","name":"id","type":"uint256"},{"internalType":"string","name":"image","type":"string"},{"internalType":"string","name":"fullname","type":"string"},{"internalType":"address","name":"voter","type":"address"},{"internalType":"uint256","name":"votes","type":"uint256"}],"stateMutability":"view","type":"function"},{"inputs":[{"internalType":"uint256","name":"id","type":"uint256"},{"internalType":"uint256","name":"cid","type":"uint256"}],"name":"vote","outputs":[],"stateMutability":"nonpayable","type":"function"}],"evm":{"bytecode":{"linkReferences":{},"object":"608060405234801561001057600080fd5b5061245b806100206000396000f3fe608060405234801561001057600080fd5b506004361061009e5760003560e01c80639d1c0bc6116100665780639d1c0bc61461011c578063a87430ba1461012f578063b384abef14610153578063dd2b4bd414610166578063f0d0bc451461018657600080fd5b8063029433f0146100a35780631a8cbcaa146100b85780631f35b51d146100e157806332b633fa146100f45780633ffbd47f14610109575b600080fd5b6100b66100b1366004611dcf565b610199565b005b6100cb6100c6366004611e73565b61046d565b6040516100d89190611f9c565b60405180910390f35b6100b66100ef366004611e73565b6106be565b6100fc6107bc565b6040516100d89190611fb6565b6100b6610117366004612018565b610a37565b6100b661012a366004611e73565b610bef565b61014261013d36600461207c565b611087565b6040516100d89594939291906120a5565b6100b66101613660046120ee565b6111d0565b610179610174366004611e73565b6116a6565b6040516100d89190612110565b6100b6610194366004612209565b611906565b33600081815260036020819052604090912001546001600160a01b0316146101dc5760405162461bcd60e51b81526004016101d3906122a3565b60405180910390fd5b60008681526007602052604090205460ff1661020a5760405162461bcd60e51b81526004016101d3906122cf565b336001600160a01b031660028781548110610227576102276122fc565b60009182526020909120600a909102016006015461010090046001600160a01b0316146102665760405162461bcd60e51b81526004016101d390612312565b60008451116102ab5760405162461bcd60e51b8152602060048201526011602482015270151a5d1b19481a5cc81c995c5d5a5c9959607a1b60448201526064016101d3565b60008351116102f65760405162461bcd60e51b815260206004820152601760248201527611195cd8dc9a5c1d1a5bdb881a5cc81c995c5d5a5c9959604a1b60448201526064016101d3565b60008211801561030557508181115b6103215760405162461bcd60e51b81526004016101d390612357565b600081116103685760405162461bcd60e51b8152602060048201526014602482015273115b99081d1a5b59481a5cc81c995c5d5a5c995960621b60448201526064016101d3565b846002878154811061037c5761037c6122fc565b90600052602060002090600a020160010190805190602001906103a0929190611bd9565b5083600287815481106103b5576103b56122fc565b90600052602060002090600a020160020190805190602001906103d9929190611bd9565b5082600287815481106103ee576103ee6122fc565b90600052602060002090600a02016003019080519060200190610412929190611bd9565b508160028781548110610427576104276122fc565b90600052602060002090600a0201600701819055508060028781548110610450576104506122fc565b90600052602060002090600a020160080181905550505050505050565b610475611c5d565b60028281548110610488576104886122fc565b90600052602060002090600a020160405180610160016040529081600082015481526020016001820180546104bc9061239f565b80601f01602080910402602001604051908101604052809291908181526020018280546104e89061239f565b80156105355780601f1061050a57610100808354040283529160200191610535565b820191906000526020600020905b81548152906001019060200180831161051857829003601f168201915b5050505050815260200160028201805461054e9061239f565b80601f016020809104026020016040519081016040528092919081815260200182805461057a9061239f565b80156105c75780601f1061059c576101008083540402835291602001916105c7565b820191906000526020600020905b8154815290600101906020018083116105aa57829003601f168201915b505050505081526020016003820180546105e09061239f565b80601f016020809104026020016040519081016040528092919081815260200182805461060c9061239f565b80156106595780601f1061062e57610100808354040283529160200191610659565b820191906000526020600020905b81548152906001019060200180831161063c57829003601f168201915b50505091835250506004820154602082015260058201546040820152600682015460ff81161515606083015261010090046001600160a01b03166080820152600782015460a0820152600882015460c082015260099091015460e09091015292915050565b33600081815260036020819052604090912001546001600160a01b0316146106f85760405162461bcd60e51b81526004016101d3906122a3565b60008181526007602052604090205460ff166107265760405162461bcd60e51b81526004016101d3906122cf565b336001600160a01b031660028281548110610743576107436122fc565b60009182526020909120600a909102016006015461010090046001600160a01b0316146107825760405162461bcd60e51b81526004016101d390612312565b600160028281548110610797576107976122fc565b60009182526020909120600a90910201600601805460ff191691151591909117905550565b60606002805480602002602001604051908101604052809291908181526020016000905b82821015610a2e57838290600052602060002090600a0201604051806101600160405290816000820154815260200160018201805461081e9061239f565b80601f016020809104026020016040519081016040528092919081815260200182805461084a9061239f565b80156108975780601f1061086c57610100808354040283529160200191610897565b820191906000526020600020905b81548152906001019060200180831161087a57829003601f168201915b505050505081526020016002820180546108b09061239f565b80601f01602080910402602001604051908101604052809291908181526020018280546108dc9061239f565b80156109295780601f106108fe57610100808354040283529160200191610929565b820191906000526020600020905b81548152906001019060200180831161090c57829003601f168201915b505050505081526020016003820180546109429061239f565b80601f016020809104026020016040519081016040528092919081815260200182805461096e9061239f565b80156109bb5780601f10610990576101008083540402835291602001916109bb565b820191906000526020600020905b81548152906001019060200180831161099e57829003601f168201915b5050509183525050600482015460208083019190915260058301546040830152600683015460ff81161515606084015261010090046001600160a01b03166080830152600783015460a0830152600883015460c083015260099092015460e09091015290825260019290920191016107e0565b50505050905090565b6000815111610a7f5760405162461bcd60e51b8152602060048201526014602482015273119d5b1b1b985b59481a5cc81c995c5d5a5c995960621b60448201526064016101d3565b33600081815260036020819052604090912001546001600160a01b03161415610aea5760405162461bcd60e51b815260206004820152601a60248201527f596f752061726520616c7265616479207265676973746572656400000000000060448201526064016101d3565b610b2c6040518060c0016040528060008152602001606081526020016060815260200160006001600160a01b0316815260200160008152602001606081525090565b60018054906000610b3c836123da565b9091555081526020808201848152604080840185905233606085018190526000908152600384522083518155905180518493610b7f926001850192910190611bd9565b5060408201518051610b9b916002840191602090910190611bd9565b5060608201516003820180546001600160a01b0319166001600160a01b039092169190911790556080820151600482015560a08201518051610be7916005840191602090910190611cc2565b505050505050565b33600081815260036020819052604090912001546001600160a01b031614610c295760405162461bcd60e51b81526004016101d3906122a3565b60008181526007602052604090205460ff16610c575760405162461bcd60e51b81526004016101d3906122cf565b600081815260056020908152604080832033845290915290205460ff1615610cc15760405162461bcd60e51b815260206004820152601a60248201527f596f75206861766520616c726561647920636f6e74657374656400000000000060448201526064016101d3565b4260028281548110610cd557610cd56122fc565b90600052602060002090600a02016008015411610d255760405162461bcd60e51b815260206004820152600e60248201526d141bdb1b081a185cc8195b99195960921b60448201526064016101d3565b4260028281548110610d3957610d396122fc565b90600052602060002090600a02016007015410610d8f5760405162461bcd60e51b8152602060048201526014602482015273141bdb1b081a185cc81b9bdd081cdd185c9d195960621b60448201526064016101d3565b336000908152600360209081526040808320815160c08101909252805482526001810180549293919291840191610dc59061239f565b80601f0160208091040260200160405190810160405280929190818152602001828054610df19061239f565b8015610e3e5780601f10610e1357610100808354040283529160200191610e3e565b820191906000526020600020905b815481529060010190602001808311610e2157829003601f168201915b50505050508152602001600282018054610e579061239f565b80601f0160208091040260200160405190810160405280929190818152602001828054610e839061239f565b8015610ed05780601f10610ea557610100808354040283529160200191610ed0565b820191906000526020600020905b815481529060010190602001808311610eb357829003601f168201915b505050505081526020016003820160009054906101000a90046001600160a01b03166001600160a01b03166001600160a01b031681526020016004820154815260200160058201805480602002602001604051908101604052809291908181526020018280548015610f6b57602002820191906000526020600020905b81546001600160a01b03168152600190910190602001808311610f4d575b5050509190925250505060008381526006602081815260408320805460018181018355918552938290208551949093029092019283558084015180519495508594610fbd938501929190910190611bd9565b5060408201518051610fd9916002840191602090910190611bd9565b5060608201516003820180546001600160a01b0319166001600160a01b039092169190911790556080820151600482015560a08201518051611025916005840191602090910190611cc2565b50505060008281526005602090815260408083203384529091529020805460ff191660011790556002805483908110611060576110606122fc565b6000918252602082206005600a909202010180549161107e836123da565b91905055505050565b600360205260009081526040902080546001820180549192916110a99061239f565b80601f01602080910402602001604051908101604052809291908181526020018280546110d59061239f565b80156111225780601f106110f757610100808354040283529160200191611122565b820191906000526020600020905b81548152906001019060200180831161110557829003601f168201915b5050505050908060020180546111379061239f565b80601f01602080910402602001604051908101604052809291908181526020018280546111639061239f565b80156111b05780601f10611185576101008083540402835291602001916111b0565b820191906000526020600020905b81548152906001019060200180831161119357829003601f168201915b50505050600383015460049093015491926001600160a01b031691905085565b33600081815260036020819052604090912001546001600160a01b03161461120a5760405162461bcd60e51b81526004016101d3906122a3565b60008281526007602052604090205460ff166112385760405162461bcd60e51b81526004016101d3906122cf565b426002838154811061124c5761124c6122fc565b90600052602060002090600a0201600801541161129c5760405162461bcd60e51b815260206004820152600e60248201526d141bdb1b081a185cc8195b99195960921b60448201526064016101d3565b42600283815481106112b0576112b06122fc565b90600052602060002090600a020160070154106113065760405162461bcd60e51b8152602060048201526014602482015273141bdb1b081a185cc81b9bdd081cdd185c9d195960621b60448201526064016101d3565b600082815260046020908152604080832033845290915290205460ff16156113695760405162461bcd60e51b8152602060048201526016602482015275165bdd481a185d9948185b1c9958591e481d9bdd195960521b60448201526064016101d3565b336000908152600360209081526040808320815160c0810190925280548252600181018054929391929184019161139f9061239f565b80601f01602080910402602001604051908101604052809291908181526020018280546113cb9061239f565b80156114185780601f106113ed57610100808354040283529160200191611418565b820191906000526020600020905b8154815290600101906020018083116113fb57829003601f168201915b505050505081526020016002820180546114319061239f565b80601f016020809104026020016040519081016040528092919081815260200182805461145d9061239f565b80156114aa5780601f1061147f576101008083540402835291602001916114aa565b820191906000526020600020905b81548152906001019060200180831161148d57829003601f168201915b505050505081526020016003820160009054906101000a90046001600160a01b03166001600160a01b03166001600160a01b03168152602001600482015481526020016005820180548060200260200160405190810160405280929190818152602001828054801561154557602002820191906000526020600020905b81546001600160a01b03168152600190910190602001808311611527575b5050505050815250509050600660008481526020019081526020016000208281548110611574576115746122fc565b600091825260208220600460069092020101805491611592836123da565b909155505060008381526006602052604090208054839081106115b7576115b76122fc565b600091825260208083206060850180516006949094029091016005018054600180820183559186528386200180546001600160a01b0319166001600160a01b039586161790558785526004835260408086209251909416855291529120805460ff191690911790556002805484908110611633576116336122fc565b6000918252602082206004600a9092020101805491611651836123da565b919050555080606001516001600160a01b03167f06d72643834bbccea11dfeb41d4aa1a5977f5cb34f87719f71daa6b2b76f29aa826040015142604051611699929190612403565b60405180910390a2505050565b60008181526007602052604090205460609060ff166116d75760405162461bcd60e51b81526004016101d3906122cf565b600082815260066020908152604080832080548251818502810185019093528083529193909284015b828210156118fb57838290600052602060002090600602016040518060c00160405290816000820154815260200160018201805461173d9061239f565b80601f01602080910402602001604051908101604052809291908181526020018280546117699061239f565b80156117b65780601f1061178b576101008083540402835291602001916117b6565b820191906000526020600020905b81548152906001019060200180831161179957829003601f168201915b505050505081526020016002820180546117cf9061239f565b80601f01602080910402602001604051908101604052809291908181526020018280546117fb9061239f565b80156118485780601f1061181d57610100808354040283529160200191611848565b820191906000526020600020905b81548152906001019060200180831161182b57829003601f168201915b505050505081526020016003820160009054906101000a90046001600160a01b03166001600160a01b03166001600160a01b0316815260200160048201548152602001600582018054806020026020016040519081016040528092919081815260200182805480156118e357602002820191906000526020600020905b81546001600160a01b031681526001909101906020018083116118c5575b50505050508152505081526020019060010190611700565b505050509050919050565b33600081815260036020819052604090912001546001600160a01b0316146119405760405162461bcd60e51b81526004016101d3906122a3565b60008451116119855760405162461bcd60e51b8152602060048201526011602482015270151a5d1b19481a5cc81c995c5d5a5c9959607a1b60448201526064016101d3565b60008351116119d05760405162461bcd60e51b815260206004820152601760248201527611195cd8dc9a5c1d1a5bdb881a5cc81c995c5d5a5c9959604a1b60448201526064016101d3565b6000821180156119df57508181115b6119fb5760405162461bcd60e51b81526004016101d390612357565b60008111611a425760405162461bcd60e51b8152602060048201526014602482015273115b99081d1a5b59481a5cc81c995c5d5a5c995960621b60448201526064016101d3565b611a4a611c5d565b600080549080611a59836123da565b9091555081526020808201878152604083018790526060830186905261010083018590526101208301849052426101408401523360e08401526002805460018101825560009190915283517f405787fa12a823e0f2b7631cc41b3ba8828b3321ca811111fa75cd3aa3bb5ace600a909202918201908155915180518594611b04937f405787fa12a823e0f2b7631cc41b3ba8828b3321ca811111fa75cd3aa3bb5acf01920190611bd9565b5060408201518051611b20916002840191602090910190611bd9565b5060608201518051611b3c916003840191602090910190611bd9565b506080820151600482015560a0820151600582015560c082015160068201805460e08501516001600160a81b0319909116921515610100600160a81b031916929092176101006001600160a01b0390931683021790558201516007808301919091556101208301516008830155610140909201516009909101559051600090815260209190915260409020805460ff191660011790555050505050565b828054611be59061239f565b90600052602060002090601f016020900481019282611c075760008555611c4d565b82601f10611c2057805160ff1916838001178555611c4d565b82800160010185558215611c4d579182015b82811115611c4d578251825591602001919060010190611c32565b50611c59929150611d17565b5090565b60405180610160016040528060008152602001606081526020016060815260200160608152602001600081526020016000815260200160001515815260200160006001600160a01b031681526020016000815260200160008152602001600081525090565b828054828255906000526020600020908101928215611c4d579160200282015b82811115611c4d57825182546001600160a01b0319166001600160a01b03909116178255602090920191600190910190611ce2565b5b80821115611c595760008155600101611d18565b634e487b7160e01b600052604160045260246000fd5b600082601f830112611d5357600080fd5b813567ffffffffffffffff80821115611d6e57611d6e611d2c565b604051601f8301601f19908116603f01168101908282118183101715611d9657611d96611d2c565b81604052838152866020858801011115611daf57600080fd5b836020870160208301376000602085830101528094505050505092915050565b60008060008060008060c08789031215611de857600080fd5b86359550602087013567ffffffffffffffff80821115611e0757600080fd5b611e138a838b01611d42565b96506040890135915080821115611e2957600080fd5b611e358a838b01611d42565b95506060890135915080821115611e4b57600080fd5b50611e5889828a01611d42565b9350506080870135915060a087013590509295509295509295565b600060208284031215611e8557600080fd5b5035919050565b6000815180845260005b81811015611eb257602081850181015186830182015201611e96565b81811115611ec4576000602083870101525b50601f01601f19169290920160200192915050565b6000610160825184526020830151816020860152611ef982860182611e8c565b91505060408301518482036040860152611f138282611e8c565b91505060608301518482036060860152611f2d8282611e8c565b9150506080830151608085015260a083015160a085015260c0830151611f5760c086018215159052565b5060e0830151611f7260e08601826001600160a01b03169052565b50610100838101519085015261012080840151908501526101409283015192909301919091525090565b602081526000611faf6020830184611ed9565b9392505050565b6000602080830181845280855180835260408601915060408160051b870101925083870160005b8281101561200b57603f19888603018452611ff9858351611ed9565b94509285019290850190600101611fdd565b5092979650505050505050565b6000806040838503121561202b57600080fd5b823567ffffffffffffffff8082111561204357600080fd5b61204f86838701611d42565b9350602085013591508082111561206557600080fd5b5061207285828601611d42565b9150509250929050565b60006020828403121561208e57600080fd5b81356001600160a01b0381168114611faf57600080fd5b85815260a0602082015260006120be60a0830187611e8c565b82810360408401526120d08187611e8c565b6001600160a01b039590951660608401525050608001529392505050565b6000806040838503121561210157600080fd5b50508035926020909101359150565b60006020808301818452808551808352604092508286019150828160051b8701018488016000805b848110156121fa57603f198a8503018652825160c08151865289820151818b88015261216682880182611e8c565b915050888201518682038a88015261217e8282611e8c565b6060848101516001600160a01b03908116918a0191909152608080860151908a015260a094850151898303958a01959095528451808352948d0194879450918d0192505b818410156121e457845181168352938c019360019390930192918c01916121c2565b5050978a01979550505091870191600101612138565b50919998505050505050505050565b600080600080600060a0868803121561222157600080fd5b853567ffffffffffffffff8082111561223957600080fd5b61224589838a01611d42565b9650602088013591508082111561225b57600080fd5b61226789838a01611d42565b9550604088013591508082111561227d57600080fd5b5061228a88828901611d42565b9598949750949560608101359550608001359392505050565b6020808252601290820152712cb7ba9030b932903737ba1030903ab9b2b960711b604082015260600190565b602080825260139082015272141bdb1b08191bd95cc81b9bdd08195e1a5cdd606a1b604082015260600190565b634e487b7160e01b600052603260045260246000fd5b60208082526025908201527f596f7520617265206e6f7420746865206469726563746f72206f662074686973604082015264081c1bdb1b60da1b606082015260800190565b60208082526028908201527f456e642064617465206d7573742062652067726561746572207468616e207374604082015267617274206461746560c01b606082015260800190565b600181811c908216806123b357607f821691505b602082108114156123d457634e487b7160e01b600052602260045260246000fd5b50919050565b60006000198214156123fc57634e487b7160e01b600052601160045260246000fd5b5060010190565b6040815260006124166040830185611e8c565b9050826020830152939250505056fea26469706673582212205a68fa56c4a82dfdce9c4f7fa2ae6fe1b0294f9bc1d12c2f21d08923ca6002c364736f6c634300080b0033","opcodes":"PUSH1 0x80 PUSH1 0x40 MSTORE CALLVALUE DUP1 ISZERO PUSH2 0x10 JUMPI PUSH1 0x0 DUP1 REVERT JUMPDEST POP PUSH2 0x245B DUP1 PUSH2 0x20 PUSH1 0x0 CODECOPY PUSH1 0x0 RETURN INVALID PUSH1 0x80 PUSH1 0x40 MSTORE CALLVALUE DUP1 ISZERO PUSH2 0x10 JUMPI PUSH1 0x0 DUP1 REVERT JUMPDEST POP PUSH1 0x4 CALLDATASIZE LT PUSH2 0x9E JUMPI PUSH1 0x0 CALLDATALOAD PUSH1 0xE0 SHR DUP1 PUSH4 0x9D1C0BC6 GT PUSH2 0x66 JUMPI DUP1 PUSH4 0x9D1C0BC6 EQ PUSH2 0x11C JUMPI DUP1 PUSH4 0xA87430BA EQ PUSH2 0x12F JUMPI DUP1 PUSH4 0xB384ABEF EQ PUSH2 0x153 JUMPI DUP1 PUSH4 0xDD2B4BD4 EQ PUSH2 0x166 JUMPI DUP1 PUSH4 0xF0D0BC45 EQ PUSH2 0x186 JUMPI PUSH1 0x0 DUP1 REVERT JUMPDEST DUP1 PUSH4 0x29433F0 EQ PUSH2 0xA3 JUMPI DUP1 PUSH4 0x1A8CBCAA EQ PUSH2 0xB8 JUMPI DUP1 PUSH4 0x1F35B51D EQ PUSH2 0xE1 JUMPI DUP1 PUSH4 0x32B633FA EQ PUSH2 0xF4 JUMPI DUP1 PUSH4 0x3FFBD47F EQ PUSH2 0x109 JUMPI JUMPDEST PUSH1 0x0 DUP1 REVERT JUMPDEST PUSH2 0xB6 PUSH2 0xB1 CALLDATASIZE PUSH1 0x4 PUSH2 0x1DCF JUMP JUMPDEST PUSH2 0x199 JUMP JUMPDEST STOP JUMPDEST PUSH2 0xCB PUSH2 0xC6 CALLDATASIZE PUSH1 0x4 PUSH2 0x1E73 JUMP JUMPDEST PUSH2 0x46D JUMP JUMPDEST PUSH1 0x40 MLOAD PUSH2 0xD8 SWAP2 SWAP1 PUSH2 0x1F9C JUMP JUMPDEST PUSH1 0x40 MLOAD DUP1 SWAP2 SUB SWAP1 RETURN JUMPDEST PUSH2 0xB6 PUSH2 0xEF CALLDATASIZE PUSH1 0x4 PUSH2 0x1E73 JUMP JUMPDEST PUSH2 0x6BE JUMP JUMPDEST PUSH2 0xFC PUSH2 0x7BC JUMP JUMPDEST PUSH1 0x40 MLOAD PUSH2 0xD8 SWAP2 SWAP1 PUSH2 0x1FB6 JUMP JUMPDEST PUSH2 0xB6 PUSH2 0x117 CALLDATASIZE PUSH1 0x4 PUSH2 0x2018 JUMP JUMPDEST PUSH2 0xA37 JUMP JUMPDEST PUSH2 0xB6 PUSH2 0x12A CALLDATASIZE PUSH1 0x4 PUSH2 0x1E73 JUMP JUMPDEST PUSH2 0xBEF JUMP JUMPDEST PUSH2 0x142 PUSH2 0x13D CALLDATASIZE PUSH1 0x4 PUSH2 0x207C JUMP JUMPDEST PUSH2 0x1087 JUMP JUMPDEST PUSH1 0x40 MLOAD PUSH2 0xD8 SWAP6 SWAP5 SWAP4 SWAP3 SWAP2 SWAP1 PUSH2 0x20A5 JUMP JUMPDEST PUSH2 0xB6 PUSH2 0x161 CALLDATASIZE PUSH1 0x4 PUSH2 0x20EE JUMP JUMPDEST PUSH2 0x11D0 JUMP JUMPDEST PUSH2 0x179 PUSH2 0x174 CALLDATASIZE PUSH1 0x4 PUSH2 0x1E73 JUMP JUMPDEST PUSH2 0x16A6 JUMP JUMPDEST PUSH1 0x40 MLOAD PUSH2 0xD8 SWAP2 SWAP1 PUSH2 0x2110 JUMP JUMPDEST PUSH2 0xB6 PUSH2 0x194 CALLDATASIZE PUSH1 0x4 PUSH2 0x2209 JUMP JUMPDEST PUSH2 0x1906 JUMP JUMPDEST CALLER PUSH1 0x0 DUP2 DUP2 MSTORE PUSH1 0x3 PUSH1 0x20 DUP2 SWAP1 MSTORE PUSH1 0x40 SWAP1 SWAP2 KECCAK256 ADD SLOAD PUSH1 0x1 PUSH1 0x1 PUSH1 0xA0 SHL SUB AND EQ PUSH2 0x1DC JUMPI PUSH1 0x40 MLOAD PUSH3 0x461BCD PUSH1 0xE5 SHL DUP2 MSTORE PUSH1 0x4 ADD PUSH2 0x1D3 SWAP1 PUSH2 0x22A3 JUMP JUMPDEST PUSH1 0x40 MLOAD DUP1 SWAP2 SUB SWAP1 REVERT JUMPDEST PUSH1 0x0 DUP7 DUP2 MSTORE PUSH1 0x7 PUSH1 0x20 MSTORE PUSH1 0x40 SWAP1 KECCAK256 SLOAD PUSH1 0xFF AND PUSH2 0x20A JUMPI PUSH1 0x40 MLOAD PUSH3 0x461BCD PUSH1 0xE5 SHL DUP2 MSTORE PUSH1 0x4 ADD PUSH2 0x1D3 SWAP1 PUSH2 0x22CF JUMP JUMPDEST CALLER PUSH1 0x1 PUSH1 0x1 PUSH1 0xA0 SHL SUB AND PUSH1 0x2 DUP8 DUP2 SLOAD DUP2 LT PUSH2 0x227 JUMPI PUSH2 0x227 PUSH2 0x22FC JUMP JUMPDEST PUSH1 0x0 SWAP2 DUP3 MSTORE PUSH1 0x20 SWAP1 SWAP2 KECCAK256 PUSH1 0xA SWAP1 SWAP2 MUL ADD PUSH1 0x6 ADD SLOAD PUSH2 0x100 SWAP1 DIV PUSH1 0x1 PUSH1 0x1 PUSH1 0xA0 SHL SUB AND EQ PUSH2 0x266 JUMPI PUSH1 0x40 MLOAD PUSH3 0x461BCD PUSH1 0xE5 SHL DUP2 MSTORE PUSH1 0x4 ADD PUSH2 0x1D3 SWAP1 PUSH2 0x2312 JUMP JUMPDEST PUSH1 0x0 DUP5 MLOAD GT PUSH2 0x2AB JUMPI PUSH1 0x40 MLOAD PUSH3 0x461BCD PUSH1 0xE5 SHL DUP2 MSTORE PUSH1 0x20 PUSH1 0x4 DUP3 ADD MSTORE PUSH1 0x11 PUSH1 0x24 DUP3 ADD MSTORE PUSH17 0x151A5D1B19481A5CC81C995C5D5A5C9959 PUSH1 0x7A SHL PUSH1 0x44 DUP3 ADD MSTORE PUSH1 0x64 ADD PUSH2 0x1D3 JUMP JUMPDEST PUSH1 0x0 DUP4 MLOAD GT PUSH2 0x2F6 JUMPI PUSH1 0x40 MLOAD PUSH3 0x461BCD PUSH1 0xE5 SHL DUP2 MSTORE PUSH1 0x20 PUSH1 0x4 DUP3 ADD MSTORE PUSH1 0x17 PUSH1 0x24 DUP3 ADD MSTORE PUSH23 0x11195CD8DC9A5C1D1A5BDB881A5CC81C995C5D5A5C9959 PUSH1 0x4A SHL PUSH1 0x44 DUP3 ADD MSTORE PUSH1 0x64 ADD PUSH2 0x1D3 JUMP JUMPDEST PUSH1 0x0 DUP3 GT DUP1 ISZERO PUSH2 0x305 JUMPI POP DUP2 DUP2 GT JUMPDEST PUSH2 0x321 JUMPI PUSH1 0x40 MLOAD PUSH3 0x461BCD PUSH1 0xE5 SHL DUP2 MSTORE PUSH1 0x4 ADD PUSH2 0x1D3 SWAP1 PUSH2 0x2357 JUMP JUMPDEST PUSH1 0x0 DUP2 GT PUSH2 0x368 JUMPI PUSH1 0x40 MLOAD PUSH3 0x461BCD PUSH1 0xE5 SHL DUP2 MSTORE PUSH1 0x20 PUSH1 0x4 DUP3 ADD MSTORE PUSH1 0x14 PUSH1 0x24 DUP3 ADD MSTORE PUSH20 0x115B99081D1A5B59481A5CC81C995C5D5A5C9959 PUSH1 0x62 SHL PUSH1 0x44 DUP3 ADD MSTORE PUSH1 0x64 ADD PUSH2 0x1D3 JUMP JUMPDEST DUP5 PUSH1 0x2 DUP8 DUP2 SLOAD DUP2 LT PUSH2 0x37C JUMPI PUSH2 0x37C PUSH2 0x22FC JUMP JUMPDEST SWAP1 PUSH1 0x0 MSTORE PUSH1 0x20 PUSH1 0x0 KECCAK256 SWAP1 PUSH1 0xA MUL ADD PUSH1 0x1 ADD SWAP1 DUP1 MLOAD SWAP1 PUSH1 0x20 ADD SWAP1 PUSH2 0x3A0 SWAP3 SWAP2 SWAP1 PUSH2 0x1BD9 JUMP JUMPDEST POP DUP4 PUSH1 0x2 DUP8 DUP2 SLOAD DUP2 LT PUSH2 0x3B5 JUMPI PUSH2 0x3B5 PUSH2 0x22FC JUMP JUMPDEST SWAP1 PUSH1 0x0 MSTORE PUSH1 0x20 PUSH1 0x0 KECCAK256 SWAP1 PUSH1 0xA MUL ADD PUSH1 0x2 ADD SWAP1 DUP1 MLOAD SWAP1 PUSH1 0x20 ADD SWAP1 PUSH2 0x3D9 SWAP3 SWAP2 SWAP1 PUSH2 0x1BD9 JUMP JUMPDEST POP DUP3 PUSH1 0x2 DUP8 DUP2 SLOAD DUP2 LT PUSH2 0x3EE JUMPI PUSH2 0x3EE PUSH2 0x22FC JUMP JUMPDEST SWAP1 PUSH1 0x0 MSTORE PUSH1 0x20 PUSH1 0x0 KECCAK256 SWAP1 PUSH1 0xA MUL ADD PUSH1 0x3 ADD SWAP1 DUP1 MLOAD SWAP1 PUSH1 0x20 ADD SWAP1 PUSH2 0x412 SWAP3 SWAP2 SWAP1 PUSH2 0x1BD9 JUMP JUMPDEST POP DUP2 PUSH1 0x2 DUP8 DUP2 SLOAD DUP2 LT PUSH2 0x427 JUMPI PUSH2 0x427 PUSH2 0x22FC JUMP JUMPDEST SWAP1 PUSH1 0x0 MSTORE PUSH1 0x20 PUSH1 0x0 KECCAK256 SWAP1 PUSH1 0xA MUL ADD PUSH1 0x7 ADD DUP2 SWAP1 SSTORE POP DUP1 PUSH1 0x2 DUP8 DUP2 SLOAD DUP2 LT PUSH2 0x450 JUMPI PUSH2 0x450 PUSH2 0x22FC JUMP JUMPDEST SWAP1 PUSH1 0x0 MSTORE PUSH1 0x20 PUSH1 0x0 KECCAK256 SWAP1 PUSH1 0xA MUL ADD PUSH1 0x8 ADD DUP2 SWAP1 SSTORE POP POP POP POP POP POP POP JUMP JUMPDEST PUSH2 0x475 PUSH2 0x1C5D JUMP JUMPDEST PUSH1 0x2 DUP3 DUP2 SLOAD DUP2 LT PUSH2 0x488 JUMPI PUSH2 0x488 PUSH2 0x22FC JUMP JUMPDEST SWAP1 PUSH1 0x0 MSTORE PUSH1 0x20 PUSH1 0x0 KECCAK256 SWAP1 PUSH1 0xA MUL ADD PUSH1 0x40 MLOAD DUP1 PUSH2 0x160 ADD PUSH1 0x40 MSTORE SWAP1 DUP2 PUSH1 0x0 DUP3 ADD SLOAD DUP2 MSTORE PUSH1 0x20 ADD PUSH1 0x1 DUP3 ADD DUP1 SLOAD PUSH2 0x4BC SWAP1 PUSH2 0x239F JUMP JUMPDEST DUP1 PUSH1 0x1F ADD PUSH1 0x20 DUP1 SWAP2 DIV MUL PUSH1 0x20 ADD PUSH1 0x40 MLOAD SWAP1 DUP2 ADD PUSH1 0x40 MSTORE DUP1 SWAP3 SWAP2 SWAP1 DUP2 DUP2 MSTORE PUSH1 0x20 ADD DUP3 DUP1 SLOAD PUSH2 0x4E8 SWAP1 PUSH2 0x239F JUMP JUMPDEST DUP1 ISZERO PUSH2 0x535 JUMPI DUP1 PUSH1 0x1F LT PUSH2 0x50A JUMPI PUSH2 0x100 DUP1 DUP4 SLOAD DIV MUL DUP4 MSTORE SWAP2 PUSH1 0x20 ADD SWAP2 PUSH2 0x535 JUMP JUMPDEST DUP3 ADD SWAP2 SWAP1 PUSH1 0x0 MSTORE PUSH1 0x20 PUSH1 0x0 KECCAK256 SWAP1 JUMPDEST DUP2 SLOAD DUP2 MSTORE SWAP1 PUSH1 0x1 ADD SWAP1 PUSH1 0x20 ADD DUP1 DUP4 GT PUSH2 0x518 JUMPI DUP3 SWAP1 SUB PUSH1 0x1F AND DUP3 ADD SWAP2 JUMPDEST POP POP POP POP POP DUP2 MSTORE PUSH1 0x20 ADD PUSH1 0x2 DUP3 ADD DUP1 SLOAD PUSH2 0x54E SWAP1 PUSH2 0x239F JUMP JUMPDEST DUP1 PUSH1 0x1F ADD PUSH1 0x20 DUP1 SWAP2 DIV MUL PUSH1 0x20 ADD PUSH1 0x40 MLOAD SWAP1 DUP2 ADD PUSH1 0x40 MSTORE DUP1 SWAP3 SWAP2 SWAP1 DUP2 DUP2 MSTORE PUSH1 0x20 ADD DUP3 DUP1 SLOAD PUSH2 0x57A SWAP1 PUSH2 0x239F JUMP JUMPDEST DUP1 ISZERO PUSH2 0x5C7 JUMPI DUP1 PUSH1 0x1F LT PUSH2 0x59C JUMPI PUSH2 0x100 DUP1 DUP4 SLOAD DIV MUL DUP4 MSTORE SWAP2 PUSH1 0x20 ADD SWAP2 PUSH2 0x5C7 JUMP JUMPDEST DUP3 ADD SWAP2 SWAP1 PUSH1 0x0 MSTORE PUSH1 0x20 PUSH1 0x0 KECCAK256 SWAP1 JUMPDEST DUP2 SLOAD DUP2 MSTORE SWAP1 PUSH1 0x1 ADD SWAP1 PUSH1 0x20 ADD DUP1 DUP4 GT PUSH2 0x5AA JUMPI DUP3 SWAP1 SUB PUSH1 0x1F AND DUP3 ADD SWAP2 JUMPDEST POP POP POP POP POP DUP2 MSTORE PUSH1 0x20 ADD PUSH1 0x3 DUP3 ADD DUP1 SLOAD PUSH2 0x5E0 SWAP1 PUSH2 0x239F JUMP JUMPDEST DUP1 PUSH1 0x1F ADD PUSH1 0x20 DUP1 SWAP2 DIV MUL PUSH1 0x20 ADD PUSH1 0x40 MLOAD SWAP1 DUP2 ADD PUSH1 0x40 MSTORE DUP1 SWAP3 SWAP2 SWAP1 DUP2 DUP2 MSTORE PUSH1 0x20 ADD DUP3 DUP1 SLOAD PUSH2 0x60C SWAP1 PUSH2 0x239F JUMP JUMPDEST DUP1 ISZERO PUSH2 0x659 JUMPI DUP1 PUSH1 0x1F LT PUSH2 0x62E JUMPI PUSH2 0x100 DUP1 DUP4 SLOAD DIV MUL DUP4 MSTORE SWAP2 PUSH1 0x20 ADD SWAP2 PUSH2 0x659 JUMP JUMPDEST DUP3 ADD SWAP2 SWAP1 PUSH1 0x0 MSTORE PUSH1 0x20 PUSH1 0x0 KECCAK256 SWAP1 JUMPDEST DUP2 SLOAD DUP2 MSTORE SWAP1 PUSH1 0x1 ADD SWAP1 PUSH1 0x20 ADD DUP1 DUP4 GT PUSH2 0x63C JUMPI DUP3 SWAP1 SUB PUSH1 0x1F AND DUP3 ADD SWAP2 JUMPDEST POP POP POP SWAP2 DUP4 MSTORE POP POP PUSH1 0x4 DUP3 ADD SLOAD PUSH1 0x20 DUP3 ADD MSTORE PUSH1 0x5 DUP3 ADD SLOAD PUSH1 0x40 DUP3 ADD MSTORE PUSH1 0x6 DUP3 ADD SLOAD PUSH1 0xFF DUP2 AND ISZERO ISZERO PUSH1 0x60 DUP4 ADD MSTORE PUSH2 0x100 SWAP1 DIV PUSH1 0x1 PUSH1 0x1 PUSH1 0xA0 SHL SUB AND PUSH1 0x80 DUP3 ADD MSTORE PUSH1 0x7 DUP3 ADD SLOAD PUSH1 0xA0 DUP3 ADD MSTORE PUSH1 0x8 DUP3 ADD SLOAD PUSH1 0xC0 DUP3 ADD MSTORE PUSH1 0x9 SWAP1 SWAP2 ADD SLOAD PUSH1 0xE0 SWAP1 SWAP2 ADD MSTORE SWAP3 SWAP2 POP POP JUMP JUMPDEST CALLER PUSH1 0x0 DUP2 DUP2 MSTORE PUSH1 0x3 PUSH1 0x20 DUP2 SWAP1 MSTORE PUSH1 0x40 SWAP1 SWAP2 KECCAK256 ADD SLOAD PUSH1 0x1 PUSH1 0x1 PUSH1 0xA0 SHL SUB AND EQ PUSH2 0x6F8 JUMPI PUSH1 0x40 MLOAD PUSH3 0x461BCD PUSH1 0xE5 SHL DUP2 MSTORE PUSH1 0x4 ADD PUSH2 0x1D3 SWAP1 PUSH2 0x22A3 JUMP JUMPDEST PUSH1 0x0 DUP2 DUP2 MSTORE PUSH1 0x7 PUSH1 0x20 MSTORE PUSH1 0x40 SWAP1 KECCAK256 SLOAD PUSH1 0xFF AND PUSH2 0x726 JUMPI PUSH1 0x40 MLOAD PUSH3 0x461BCD PUSH1 0xE5 SHL DUP2 MSTORE PUSH1 0x4 ADD PUSH2 0x1D3 SWAP1 PUSH2 0x22CF JUMP JUMPDEST CALLER PUSH1 0x1 PUSH1 0x1 PUSH1 0xA0 SHL SUB AND PUSH1 0x2 DUP3 DUP2 SLOAD DUP2 LT PUSH2 0x743 JUMPI PUSH2 0x743 PUSH2 0x22FC JUMP JUMPDEST PUSH1 0x0 SWAP2 DUP3 MSTORE PUSH1 0x20 SWAP1 SWAP2 KECCAK256 PUSH1 0xA SWAP1 SWAP2 MUL ADD PUSH1 0x6 ADD SLOAD PUSH2 0x100 SWAP1 DIV PUSH1 0x1 PUSH1 0x1 PUSH1 0xA0 SHL SUB AND EQ PUSH2 0x782 JUMPI PUSH1 0x40 MLOAD PUSH3 0x461BCD PUSH1 0xE5 SHL DUP2 MSTORE PUSH1 0x4 ADD PUSH2 0x1D3 SWAP1 PUSH2 0x2312 JUMP JUMPDEST PUSH1 0x1 PUSH1 0x2 DUP3 DUP2 SLOAD DUP2 LT PUSH2 0x797 JUMPI PUSH2 0x797 PUSH2 0x22FC JUMP JUMPDEST PUSH1 0x0 SWAP2 DUP3 MSTORE PUSH1 0x20 SWAP1 SWAP2 KECCAK256 PUSH1 0xA SWAP1 SWAP2 MUL ADD PUSH1 0x6 ADD DUP1 SLOAD PUSH1 0xFF NOT AND SWAP2 ISZERO ISZERO SWAP2 SWAP1 SWAP2 OR SWAP1 SSTORE POP JUMP JUMPDEST PUSH1 0x60 PUSH1 0x2 DUP1 SLOAD DUP1 PUSH1 0x20 MUL PUSH1 0x20 ADD PUSH1 0x40 MLOAD SWAP1 DUP2 ADD PUSH1 0x40 MSTORE DUP1 SWAP3 SWAP2 SWAP1 DUP2 DUP2 MSTORE PUSH1 0x20 ADD PUSH1 0x0 SWAP1 JUMPDEST DUP3 DUP3 LT ISZERO PUSH2 0xA2E JUMPI DUP4 DUP3 SWAP1 PUSH1 0x0 MSTORE PUSH1 0x20 PUSH1 0x0 KECCAK256 SWAP1 PUSH1 0xA MUL ADD PUSH1 0x40 MLOAD DUP1 PUSH2 0x160 ADD PUSH1 0x40 MSTORE SWAP1 DUP2 PUSH1 0x0 DUP3 ADD SLOAD DUP2 MSTORE PUSH1 0x20 ADD PUSH1 0x1 DUP3 ADD DUP1 SLOAD PUSH2 0x81E SWAP1 PUSH2 0x239F JUMP JUMPDEST DUP1 PUSH1 0x1F ADD PUSH1 0x20 DUP1 SWAP2 DIV MUL PUSH1 0x20 ADD PUSH1 0x40 MLOAD SWAP1 DUP2 ADD PUSH1 0x40 MSTORE DUP1 SWAP3 SWAP2 SWAP1 DUP2 DUP2 MSTORE PUSH1 0x20 ADD DUP3 DUP1 SLOAD PUSH2 0x84A SWAP1 PUSH2 0x239F JUMP JUMPDEST DUP1 ISZERO PUSH2 0x897 JUMPI DUP1 PUSH1 0x1F LT PUSH2 0x86C JUMPI PUSH2 0x100 DUP1 DUP4 SLOAD DIV MUL DUP4 MSTORE SWAP2 PUSH1 0x20 ADD SWAP2 PUSH2 0x897 JUMP JUMPDEST DUP3 ADD SWAP2 SWAP1 PUSH1 0x0 MSTORE PUSH1 0x20 PUSH1 0x0 KECCAK256 SWAP1 JUMPDEST DUP2 SLOAD DUP2 MSTORE SWAP1 PUSH1 0x1 ADD SWAP1 PUSH1 0x20 ADD DUP1 DUP4 GT PUSH2 0x87A JUMPI DUP3 SWAP1 SUB PUSH1 0x1F AND DUP3 ADD SWAP2 JUMPDEST POP POP POP POP POP DUP2 MSTORE PUSH1 0x20 ADD PUSH1 0x2 DUP3 ADD DUP1 SLOAD PUSH2 0x8B0 SWAP1 PUSH2 0x239F JUMP JUMPDEST DUP1 PUSH1 0x1F ADD PUSH1 0x20 DUP1 SWAP2 DIV MUL PUSH1 0x20 ADD PUSH1 0x40 MLOAD SWAP1 DUP2 ADD PUSH1 0x40 MSTORE DUP1 SWAP3 SWAP2 SWAP1 DUP2 DUP2 MSTORE PUSH1 0x20 ADD DUP3 DUP1 SLOAD PUSH2 0x8DC SWAP1 PUSH2 0x239F JUMP JUMPDEST DUP1 ISZERO PUSH2 0x929 JUMPI DUP1 PUSH1 0x1F LT PUSH2 0x8FE JUMPI PUSH2 0x100 DUP1 DUP4 SLOAD DIV MUL DUP4 MSTORE SWAP2 PUSH1 0x20 ADD SWAP2 PUSH2 0x929 JUMP JUMPDEST DUP3 ADD SWAP2 SWAP1 PUSH1 0x0 MSTORE PUSH1 0x20 PUSH1 0x0 KECCAK256 SWAP1 JUMPDEST DUP2 SLOAD DUP2 MSTORE SWAP1 PUSH1 0x1 ADD SWAP1 PUSH1 0x20 ADD DUP1 DUP4 GT PUSH2 0x90C JUMPI DUP3 SWAP1 SUB PUSH1 0x1F AND DUP3 ADD SWAP2 JUMPDEST POP POP POP POP POP DUP2 MSTORE PUSH1 0x20 ADD PUSH1 0x3 DUP3 ADD DUP1 SLOAD PUSH2 0x942 SWAP1 PUSH2 0x239F JUMP JUMPDEST DUP1 PUSH1 0x1F ADD PUSH1 0x20 DUP1 SWAP2 DIV MUL PUSH1 0x20 ADD PUSH1 0x40 MLOAD SWAP1 DUP2 ADD PUSH1 0x40 MSTORE DUP1 SWAP3 SWAP2 SWAP1 DUP2 DUP2 MSTORE PUSH1 0x20 ADD DUP3 DUP1 SLOAD PUSH2 0x96E SWAP1 PUSH2 0x239F JUMP JUMPDEST DUP1 ISZERO PUSH2 0x9BB JUMPI DUP1 PUSH1 0x1F LT PUSH2 0x990 JUMPI PUSH2 0x100 DUP1 DUP4 SLOAD DIV MUL DUP4 MSTORE SWAP2 PUSH1 0x20 ADD SWAP2 PUSH2 0x9BB JUMP JUMPDEST DUP3 ADD SWAP2 SWAP1 PUSH1 0x0 MSTORE PUSH1 0x20 PUSH1 0x0 KECCAK256 SWAP1 JUMPDEST DUP2 SLOAD DUP2 MSTORE SWAP1 PUSH1 0x1 ADD SWAP1 PUSH1 0x20 ADD DUP1 DUP4 GT PUSH2 0x99E JUMPI DUP3 SWAP1 SUB PUSH1 0x1F AND DUP3 ADD SWAP2 JUMPDEST POP POP POP SWAP2 DUP4 MSTORE POP POP PUSH1 0x4 DUP3 ADD SLOAD PUSH1 0x20 DUP1 DUP4 ADD SWAP2 SWAP1 SWAP2 MSTORE PUSH1 0x5 DUP4 ADD SLOAD PUSH1 0x40 DUP4 ADD MSTORE PUSH1 0x6 DUP4 ADD SLOAD PUSH1 0xFF DUP2 AND ISZERO ISZERO PUSH1 0x60 DUP5 ADD MSTORE PUSH2 0x100 SWAP1 DIV PUSH1 0x1 PUSH1 0x1 PUSH1 0xA0 SHL SUB AND PUSH1 0x80 DUP4 ADD MSTORE PUSH1 0x7 DUP4 ADD SLOAD PUSH1 0xA0 DUP4 ADD MSTORE PUSH1 0x8 DUP4 ADD SLOAD PUSH1 0xC0 DUP4 ADD MSTORE PUSH1 0x9 SWAP1 SWAP3 ADD SLOAD PUSH1 0xE0 SWAP1 SWAP2 ADD MSTORE SWAP1 DUP3 MSTORE PUSH1 0x1 SWAP3 SWAP1 SWAP3 ADD SWAP2 ADD PUSH2 0x7E0 JUMP JUMPDEST POP POP POP POP SWAP1 POP SWAP1 JUMP JUMPDEST PUSH1 0x0 DUP2 MLOAD GT PUSH2 0xA7F JUMPI PUSH1 0x40 MLOAD PUSH3 0x461BCD PUSH1 0xE5 SHL DUP2 MSTORE PUSH1 0x20 PUSH1 0x4 DUP3 ADD MSTORE PUSH1 0x14 PUSH1 0x24 DUP3 ADD MSTORE PUSH20 0x119D5B1B1B985B59481A5CC81C995C5D5A5C9959 PUSH1 0x62 SHL PUSH1 0x44 DUP3 ADD MSTORE PUSH1 0x64 ADD PUSH2 0x1D3 JUMP JUMPDEST CALLER PUSH1 0x0 DUP2 DUP2 MSTORE PUSH1 0x3 PUSH1 0x20 DUP2 SWAP1 MSTORE PUSH1 0x40 SWAP1 SWAP2 KECCAK256 ADD SLOAD PUSH1 0x1 PUSH1 0x1 PUSH1 0xA0 SHL SUB AND EQ ISZERO PUSH2 0xAEA JUMPI PUSH1 0x40 MLOAD PUSH3 0x461BCD PUSH1 0xE5 SHL DUP2 MSTORE PUSH1 0x20 PUSH1 0x4 DUP3 ADD MSTORE PUSH1 0x1A PUSH1 0x24 DUP3 ADD MSTORE PUSH32 0x596F752061726520616C72656164792072656769737465726564000000000000 PUSH1 0x44 DUP3 ADD MSTORE PUSH1 0x64 ADD PUSH2 0x1D3 JUMP JUMPDEST PUSH2 0xB2C PUSH1 0x40 MLOAD DUP1 PUSH1 0xC0 ADD PUSH1 0x40 MSTORE DUP1 PUSH1 0x0 DUP2 MSTORE PUSH1 0x20 ADD PUSH1 0x60 DUP2 MSTORE PUSH1 0x20 ADD PUSH1 0x60 DUP2 MSTORE PUSH1 0x20 ADD PUSH1 0x0 PUSH1 0x1 PUSH1 0x1 PUSH1 0xA0 SHL SUB AND DUP2 MSTORE PUSH1 0x20 ADD PUSH1 0x0 DUP2 MSTORE PUSH1 0x20 ADD PUSH1 0x60 DUP2 MSTORE POP SWAP1 JUMP JUMPDEST PUSH1 0x1 DUP1 SLOAD SWAP1 PUSH1 0x0 PUSH2 0xB3C DUP4 PUSH2 0x23DA JUMP JUMPDEST SWAP1 SWAP2 SSTORE POP DUP2 MSTORE PUSH1 0x20 DUP1 DUP3 ADD DUP5 DUP2 MSTORE PUSH1 0x40 DUP1 DUP5 ADD DUP6 SWAP1 MSTORE CALLER PUSH1 0x60 DUP6 ADD DUP2 SWAP1 MSTORE PUSH1 0x0 SWAP1 DUP2 MSTORE PUSH1 0x3 DUP5 MSTORE KECCAK256 DUP4 MLOAD DUP2 SSTORE SWAP1 MLOAD DUP1 MLOAD DUP5 SWAP4 PUSH2 0xB7F SWAP3 PUSH1 0x1 DUP6 ADD SWAP3 SWAP2 ADD SWAP1 PUSH2 0x1BD9 JUMP JUMPDEST POP PUSH1 0x40 DUP3 ADD MLOAD DUP1 MLOAD PUSH2 0xB9B SWAP2 PUSH1 0x2 DUP5 ADD SWAP2 PUSH1 0x20 SWAP1 SWAP2 ADD SWAP1 PUSH2 0x1BD9 JUMP JUMPDEST POP PUSH1 0x60 DUP3 ADD MLOAD PUSH1 0x3 DUP3 ADD DUP1 SLOAD PUSH1 0x1 PUSH1 0x1 PUSH1 0xA0 SHL SUB NOT AND PUSH1 0x1 PUSH1 0x1 PUSH1 0xA0 SHL SUB SWAP1 SWAP3 AND SWAP2 SWAP1 SWAP2 OR SWAP1 SSTORE PUSH1 0x80 DUP3 ADD MLOAD PUSH1 0x4 DUP3 ADD SSTORE PUSH1 0xA0 DUP3 ADD MLOAD DUP1 MLOAD PUSH2 0xBE7 SWAP2 PUSH1 0x5 DUP5 ADD SWAP2 PUSH1 0x20 SWAP1 SWAP2 ADD SWAP1 PUSH2 0x1CC2 JUMP JUMPDEST POP POP POP POP POP POP JUMP JUMPDEST CALLER PUSH1 0x0 DUP2 DUP2 MSTORE PUSH1 0x3 PUSH1 0x20 DUP2 SWAP1 MSTORE PUSH1 0x40 SWAP1 SWAP2 KECCAK256 ADD SLOAD PUSH1 0x1 PUSH1 0x1 PUSH1 0xA0 SHL SUB AND EQ PUSH2 0xC29 JUMPI PUSH1 0x40 MLOAD PUSH3 0x461BCD PUSH1 0xE5 SHL DUP2 MSTORE PUSH1 0x4 ADD PUSH2 0x1D3 SWAP1 PUSH2 0x22A3 JUMP JUMPDEST PUSH1 0x0 DUP2 DUP2 MSTORE PUSH1 0x7 PUSH1 0x20 MSTORE PUSH1 0x40 SWAP1 KECCAK256 SLOAD PUSH1 0xFF AND PUSH2 0xC57 JUMPI PUSH1 0x40 MLOAD PUSH3 0x461BCD PUSH1 0xE5 SHL DUP2 MSTORE PUSH1 0x4 ADD PUSH2 0x1D3 SWAP1 PUSH2 0x22CF JUMP JUMPDEST PUSH1 0x0 DUP2 DUP2 MSTORE PUSH1 0x5 PUSH1 0x20 SWAP1 DUP2 MSTORE PUSH1 0x40 DUP1 DUP4 KECCAK256 CALLER DUP5 MSTORE SWAP1 SWAP2 MSTORE SWAP1 KECCAK256 SLOAD PUSH1 0xFF AND ISZERO PUSH2 0xCC1 JUMPI PUSH1 0x40 MLOAD PUSH3 0x461BCD PUSH1 0xE5 SHL DUP2 MSTORE PUSH1 0x20 PUSH1 0x4 DUP3 ADD MSTORE PUSH1 0x1A PUSH1 0x24 DUP3 ADD MSTORE PUSH32 0x596F75206861766520616C726561647920636F6E746573746564000000000000 PUSH1 0x44 DUP3 ADD MSTORE PUSH1 0x64 ADD PUSH2 0x1D3 JUMP JUMPDEST TIMESTAMP PUSH1 0x2 DUP3 DUP2 SLOAD DUP2 LT PUSH2 0xCD5 JUMPI PUSH2 0xCD5 PUSH2 0x22FC JUMP JUMPDEST SWAP1 PUSH1 0x0 MSTORE PUSH1 0x20 PUSH1 0x0 KECCAK256 SWAP1 PUSH1 0xA MUL ADD PUSH1 0x8 ADD SLOAD GT PUSH2 0xD25 JUMPI PUSH1 0x40 MLOAD PUSH3 0x461BCD PUSH1 0xE5 SHL DUP2 MSTORE PUSH1 0x20 PUSH1 0x4 DUP3 ADD MSTORE PUSH1 0xE PUSH1 0x24 DUP3 ADD MSTORE PUSH14 0x141BDB1B081A185CC8195B991959 PUSH1 0x92 SHL PUSH1 0x44 DUP3 ADD MSTORE PUSH1 0x64 ADD PUSH2 0x1D3 JUMP JUMPDEST TIMESTAMP PUSH1 0x2 DUP3 DUP2 SLOAD DUP2 LT PUSH2 0xD39 JUMPI PUSH2 0xD39 PUSH2 0x22FC JUMP JUMPDEST SWAP1 PUSH1 0x0 MSTORE PUSH1 0x20 PUSH1 0x0 KECCAK256 SWAP1 PUSH1 0xA MUL ADD PUSH1 0x7 ADD SLOAD LT PUSH2 0xD8F JUMPI PUSH1 0x40 MLOAD PUSH3 0x461BCD PUSH1 0xE5 SHL DUP2 MSTORE PUSH1 0x20 PUSH1 0x4 DUP3 ADD MSTORE PUSH1 0x14 PUSH1 0x24 DUP3 ADD MSTORE PUSH20 0x141BDB1B081A185CC81B9BDD081CDD185C9D1959 PUSH1 0x62 SHL PUSH1 0x44 DUP3 ADD MSTORE PUSH1 0x64 ADD PUSH2 0x1D3 JUMP JUMPDEST CALLER PUSH1 0x0 SWAP1 DUP2 MSTORE PUSH1 0x3 PUSH1 0x20 SWAP1 DUP2 MSTORE PUSH1 0x40 DUP1 DUP4 KECCAK256 DUP2 MLOAD PUSH1 0xC0 DUP2 ADD SWAP1 SWAP3 MSTORE DUP1 SLOAD DUP3 MSTORE PUSH1 0x1 DUP2 ADD DUP1 SLOAD SWAP3 SWAP4 SWAP2 SWAP3 SWAP2 DUP5 ADD SWAP2 PUSH2 0xDC5 SWAP1 PUSH2 0x239F JUMP JUMPDEST DUP1 PUSH1 0x1F ADD PUSH1 0x20 DUP1 SWAP2 DIV MUL PUSH1 0x20 ADD PUSH1 0x40 MLOAD SWAP1 DUP2 ADD PUSH1 0x40 MSTORE DUP1 SWAP3 SWAP2 SWAP1 DUP2 DUP2 MSTORE PUSH1 0x20 ADD DUP3 DUP1 SLOAD PUSH2 0xDF1 SWAP1 PUSH2 0x239F JUMP JUMPDEST DUP1 ISZERO PUSH2 0xE3E JUMPI DUP1 PUSH1 0x1F LT PUSH2 0xE13 JUMPI PUSH2 0x100 DUP1 DUP4 SLOAD DIV MUL DUP4 MSTORE SWAP2 PUSH1 0x20 ADD SWAP2 PUSH2 0xE3E JUMP JUMPDEST DUP3 ADD SWAP2 SWAP1 PUSH1 0x0 MSTORE PUSH1 0x20 PUSH1 0x0 KECCAK256 SWAP1 JUMPDEST DUP2 SLOAD DUP2 MSTORE SWAP1 PUSH1 0x1 ADD SWAP1 PUSH1 0x20 ADD DUP1 DUP4 GT PUSH2 0xE21 JUMPI DUP3 SWAP1 SUB PUSH1 0x1F AND DUP3 ADD SWAP2 JUMPDEST POP POP POP POP POP DUP2 MSTORE PUSH1 0x20 ADD PUSH1 0x2 DUP3 ADD DUP1 SLOAD PUSH2 0xE57 SWAP1 PUSH2 0x239F JUMP JUMPDEST DUP1 PUSH1 0x1F ADD PUSH1 0x20 DUP1 SWAP2 DIV MUL PUSH1 0x20 ADD PUSH1 0x40 MLOAD SWAP1 DUP2 ADD PUSH1 0x40 MSTORE DUP1 SWAP3 SWAP2 SWAP1 DUP2 DUP2 MSTORE PUSH1 0x20 ADD DUP3 DUP1 SLOAD PUSH2 0xE83 SWAP1 PUSH2 0x239F JUMP JUMPDEST DUP1 ISZERO PUSH2 0xED0 JUMPI DUP1 PUSH1 0x1F LT PUSH2 0xEA5 JUMPI PUSH2 0x100 DUP1 DUP4 SLOAD DIV MUL DUP4 MSTORE SWAP2 PUSH1 0x20 ADD SWAP2 PUSH2 0xED0 JUMP JUMPDEST DUP3 ADD SWAP2 SWAP1 PUSH1 0x0 MSTORE PUSH1 0x20 PUSH1 0x0 KECCAK256 SWAP1 JUMPDEST DUP2 SLOAD DUP2 MSTORE SWAP1 PUSH1 0x1 ADD SWAP1 PUSH1 0x20 ADD DUP1 DUP4 GT PUSH2 0xEB3 JUMPI DUP3 SWAP1 SUB PUSH1 0x1F AND DUP3 ADD SWAP2 JUMPDEST POP POP POP POP POP DUP2 MSTORE PUSH1 0x20 ADD PUSH1 0x3 DUP3 ADD PUSH1 0x0 SWAP1 SLOAD SWAP1 PUSH2 0x100 EXP SWAP1 DIV PUSH1 0x1 PUSH1 0x1 PUSH1 0xA0 SHL SUB AND PUSH1 0x1 PUSH1 0x1 PUSH1 0xA0 SHL SUB AND PUSH1 0x1 PUSH1 0x1 PUSH1 0xA0 SHL SUB AND DUP2 MSTORE PUSH1 0x20 ADD PUSH1 0x4 DUP3 ADD SLOAD DUP2 MSTORE PUSH1 0x20 ADD PUSH1 0x5 DUP3 ADD DUP1 SLOAD DUP1 PUSH1 0x20 MUL PUSH1 0x20 ADD PUSH1 0x40 MLOAD SWAP1 DUP2 ADD PUSH1 0x40 MSTORE DUP1 SWAP3 SWAP2 SWAP1 DUP2 DUP2 MSTORE PUSH1 0x20 ADD DUP3 DUP1 SLOAD DUP1 ISZERO PUSH2 0xF6B JUMPI PUSH1 0x20 MUL DUP3 ADD SWAP2 SWAP1 PUSH1 0x0 MSTORE PUSH1 0x20 PUSH1 0x0 KECCAK256 SWAP1 JUMPDEST DUP2 SLOAD PUSH1 0x1 PUSH1 0x1 PUSH1 0xA0 SHL SUB AND DUP2 MSTORE PUSH1 0x1 SWAP1 SWAP2 ADD SWAP1 PUSH1 0x20 ADD DUP1 DUP4 GT PUSH2 0xF4D JUMPI JUMPDEST POP POP POP SWAP2 SWAP1 SWAP3 MSTORE POP POP POP PUSH1 0x0 DUP4 DUP2 MSTORE PUSH1 0x6 PUSH1 0x20 DUP2 DUP2 MSTORE PUSH1 0x40 DUP4 KECCAK256 DUP1 SLOAD PUSH1 0x1 DUP2 DUP2 ADD DUP4 SSTORE SWAP2 DUP6 MSTORE SWAP4 DUP3 SWAP1 KECCAK256 DUP6 MLOAD SWAP5 SWAP1 SWAP4 MUL SWAP1 SWAP3 ADD SWAP3 DUP4 SSTORE DUP1 DUP5 ADD MLOAD DUP1 MLOAD SWAP5 SWAP6 POP DUP6 SWAP5 PUSH2 0xFBD SWAP4 DUP6 ADD SWAP3 SWAP2 SWAP1 SWAP2 ADD SWAP1 PUSH2 0x1BD9 JUMP JUMPDEST POP PUSH1 0x40 DUP3 ADD MLOAD DUP1 MLOAD PUSH2 0xFD9 SWAP2 PUSH1 0x2 DUP5 ADD SWAP2 PUSH1 0x20 SWAP1 SWAP2 ADD SWAP1 PUSH2 0x1BD9 JUMP JUMPDEST POP PUSH1 0x60 DUP3 ADD MLOAD PUSH1 0x3 DUP3 ADD DUP1 SLOAD PUSH1 0x1 PUSH1 0x1 PUSH1 0xA0 SHL SUB NOT AND PUSH1 0x1 PUSH1 0x1 PUSH1 0xA0 SHL SUB SWAP1 SWAP3 AND SWAP2 SWAP1 SWAP2 OR SWAP1 SSTORE PUSH1 0x80 DUP3 ADD MLOAD PUSH1 0x4 DUP3 ADD SSTORE PUSH1 0xA0 DUP3 ADD MLOAD DUP1 MLOAD PUSH2 0x1025 SWAP2 PUSH1 0x5 DUP5 ADD SWAP2 PUSH1 0x20 SWAP1 SWAP2 ADD SWAP1 PUSH2 0x1CC2 JUMP JUMPDEST POP POP POP PUSH1 0x0 DUP3 DUP2 MSTORE PUSH1 0x5 PUSH1 0x20 SWAP1 DUP2 MSTORE PUSH1 0x40 DUP1 DUP4 KECCAK256 CALLER DUP5 MSTORE SWAP1 SWAP2 MSTORE SWAP1 KECCAK256 DUP1 SLOAD PUSH1 0xFF NOT AND PUSH1 0x1 OR SWAP1 SSTORE PUSH1 0x2 DUP1 SLOAD DUP4 SWAP1 DUP2 LT PUSH2 0x1060 JUMPI PUSH2 0x1060 PUSH2 0x22FC JUMP JUMPDEST PUSH1 0x0 SWAP2 DUP3 MSTORE PUSH1 0x20 DUP3 KECCAK256 PUSH1 0x5 PUSH1 0xA SWAP1 SWAP3 MUL ADD ADD DUP1 SLOAD SWAP2 PUSH2 0x107E DUP4 PUSH2 0x23DA JUMP JUMPDEST SWAP2 SWAP1 POP SSTORE POP POP POP JUMP JUMPDEST PUSH1 0x3 PUSH1 0x20 MSTORE PUSH1 0x0 SWAP1 DUP2 MSTORE PUSH1 0x40 SWAP1 KECCAK256 DUP1 SLOAD PUSH1 0x1 DUP3 ADD DUP1 SLOAD SWAP2 SWAP3 SWAP2 PUSH2 0x10A9 SWAP1 PUSH2 0x239F JUMP JUMPDEST DUP1 PUSH1 0x1F ADD PUSH1 0x20 DUP1 SWAP2 DIV MUL PUSH1 0x20 ADD PUSH1 0x40 MLOAD SWAP1 DUP2 ADD PUSH1 0x40 MSTORE DUP1 SWAP3 SWAP2 SWAP1 DUP2 DUP2 MSTORE PUSH1 0x20 ADD DUP3 DUP1 SLOAD PUSH2 0x10D5 SWAP1 PUSH2 0x239F JUMP JUMPDEST DUP1 ISZERO PUSH2 0x1122 JUMPI DUP1 PUSH1 0x1F LT PUSH2 0x10F7 JUMPI PUSH2 0x100 DUP1 DUP4 SLOAD DIV MUL DUP4 MSTORE SWAP2 PUSH1 0x20 ADD SWAP2 PUSH2 0x1122 JUMP JUMPDEST DUP3 ADD SWAP2 SWAP1 PUSH1 0x0 MSTORE PUSH1 0x20 PUSH1 0x0 KECCAK256 SWAP1 JUMPDEST DUP2 SLOAD DUP2 MSTORE SWAP1 PUSH1 0x1 ADD SWAP1 PUSH1 0x20 ADD DUP1 DUP4 GT PUSH2 0x1105 JUMPI DUP3 SWAP1 SUB PUSH1 0x1F AND DUP3 ADD SWAP2 JUMPDEST POP POP POP POP POP SWAP1 DUP1 PUSH1 0x2 ADD DUP1 SLOAD PUSH2 0x1137 SWAP1 PUSH2 0x239F JUMP JUMPDEST DUP1 PUSH1 0x1F ADD PUSH1 0x20 DUP1 SWAP2 DIV MUL PUSH1 0x20 ADD PUSH1 0x40 MLOAD SWAP1 DUP2 ADD PUSH1 0x40 MSTORE DUP1 SWAP3 SWAP2 SWAP1 DUP2 DUP2 MSTORE PUSH1 0x20 ADD DUP3 DUP1 SLOAD PUSH2 0x1163 SWAP1 PUSH2 0x239F JUMP JUMPDEST DUP1 ISZERO PUSH2 0x11B0 JUMPI DUP1 PUSH1 0x1F LT PUSH2 0x1185 JUMPI PUSH2 0x100 DUP1 DUP4 SLOAD DIV MUL DUP4 MSTORE SWAP2 PUSH1 0x20 ADD SWAP2 PUSH2 0x11B0 JUMP JUMPDEST DUP3 ADD SWAP2 SWAP1 PUSH1 0x0 MSTORE PUSH1 0x20 PUSH1 0x0 KECCAK256 SWAP1 JUMPDEST DUP2 SLOAD DUP2 MSTORE SWAP1 PUSH1 0x1 ADD SWAP1 PUSH1 0x20 ADD DUP1 DUP4 GT PUSH2 0x1193 JUMPI DUP3 SWAP1 SUB PUSH1 0x1F AND DUP3 ADD SWAP2 JUMPDEST POP POP POP POP PUSH1 0x3 DUP4 ADD SLOAD PUSH1 0x4 SWAP1 SWAP4 ADD SLOAD SWAP2 SWAP3 PUSH1 0x1 PUSH1 0x1 PUSH1 0xA0 SHL SUB AND SWAP2 SWAP1 POP DUP6 JUMP JUMPDEST CALLER PUSH1 0x0 DUP2 DUP2 MSTORE PUSH1 0x3 PUSH1 0x20 DUP2 SWAP1 MSTORE PUSH1 0x40 SWAP1 SWAP2 KECCAK256 ADD SLOAD PUSH1 0x1 PUSH1 0x1 PUSH1 0xA0 SHL SUB AND EQ PUSH2 0x120A JUMPI PUSH1 0x40 MLOAD PUSH3 0x461BCD PUSH1 0xE5 SHL DUP2 MSTORE PUSH1 0x4 ADD PUSH2 0x1D3 SWAP1 PUSH2 0x22A3 JUMP JUMPDEST PUSH1 0x0 DUP3 DUP2 MSTORE PUSH1 0x7 PUSH1 0x20 MSTORE PUSH1 0x40 SWAP1 KECCAK256 SLOAD PUSH1 0xFF AND PUSH2 0x1238 JUMPI PUSH1 0x40 MLOAD PUSH3 0x461BCD PUSH1 0xE5 SHL DUP2 MSTORE PUSH1 0x4 ADD PUSH2 0x1D3 SWAP1 PUSH2 0x22CF JUMP JUMPDEST TIMESTAMP PUSH1 0x2 DUP4 DUP2 SLOAD DUP2 LT PUSH2 0x124C JUMPI PUSH2 0x124C PUSH2 0x22FC JUMP JUMPDEST SWAP1 PUSH1 0x0 MSTORE PUSH1 0x20 PUSH1 0x0 KECCAK256 SWAP1 PUSH1 0xA MUL ADD PUSH1 0x8 ADD SLOAD GT PUSH2 0x129C JUMPI PUSH1 0x40 MLOAD PUSH3 0x461BCD PUSH1 0xE5 SHL DUP2 MSTORE PUSH1 0x20 PUSH1 0x4 DUP3 ADD MSTORE PUSH1 0xE PUSH1 0x24 DUP3 ADD MSTORE PUSH14 0x141BDB1B081A185CC8195B991959 PUSH1 0x92 SHL PUSH1 0x44 DUP3 ADD MSTORE PUSH1 0x64 ADD PUSH2 0x1D3 JUMP JUMPDEST TIMESTAMP PUSH1 0x2 DUP4 DUP2 SLOAD DUP2 LT PUSH2 0x12B0 JUMPI PUSH2 0x12B0 PUSH2 0x22FC JUMP JUMPDEST SWAP1 PUSH1 0x0 MSTORE PUSH1 0x20 PUSH1 0x0 KECCAK256 SWAP1 PUSH1 0xA MUL ADD PUSH1 0x7 ADD SLOAD LT PUSH2 0x1306 JUMPI PUSH1 0x40 MLOAD PUSH3 0x461BCD PUSH1 0xE5 SHL DUP2 MSTORE PUSH1 0x20 PUSH1 0x4 DUP3 ADD MSTORE PUSH1 0x14 PUSH1 0x24 DUP3 ADD MSTORE PUSH20 0x141BDB1B081A185CC81B9BDD081CDD185C9D1959 PUSH1 0x62 SHL PUSH1 0x44 DUP3 ADD MSTORE PUSH1 0x64 ADD PUSH2 0x1D3 JUMP JUMPDEST PUSH1 0x0 DUP3 DUP2 MSTORE PUSH1 0x4 PUSH1 0x20 SWAP1 DUP2 MSTORE PUSH1 0x40 DUP1 DUP4 KECCAK256 CALLER DUP5 MSTORE SWAP1 SWAP2 MSTORE SWAP1 KECCAK256 SLOAD PUSH1 0xFF AND ISZERO PUSH2 0x1369 JUMPI PUSH1 0x40 MLOAD PUSH3 0x461BCD PUSH1 0xE5 SHL DUP2 MSTORE PUSH1 0x20 PUSH1 0x4 DUP3 ADD MSTORE PUSH1 0x16 PUSH1 0x24 DUP3 ADD MSTORE PUSH22 0x165BDD481A185D9948185B1C9958591E481D9BDD1959 PUSH1 0x52 SHL PUSH1 0x44 DUP3 ADD MSTORE PUSH1 0x64 ADD PUSH2 0x1D3 JUMP JUMPDEST CALLER PUSH1 0x0 SWAP1 DUP2 MSTORE PUSH1 0x3 PUSH1 0x20 SWAP1 DUP2 MSTORE PUSH1 0x40 DUP1 DUP4 KECCAK256 DUP2 MLOAD PUSH1 0xC0 DUP2 ADD SWAP1 SWAP3 MSTORE DUP1 SLOAD DUP3 MSTORE PUSH1 0x1 DUP2 ADD DUP1 SLOAD SWAP3 SWAP4 SWAP2 SWAP3 SWAP2 DUP5 ADD SWAP2 PUSH2 0x139F SWAP1 PUSH2 0x239F JUMP JUMPDEST DUP1 PUSH1 0x1F ADD PUSH1 0x20 DUP1 SWAP2 DIV MUL PUSH1 0x20 ADD PUSH1 0x40 MLOAD SWAP1 DUP2 ADD PUSH1 0x40 MSTORE DUP1 SWAP3 SWAP2 SWAP1 DUP2 DUP2 MSTORE PUSH1 0x20 ADD DUP3 DUP1 SLOAD PUSH2 0x13CB SWAP1 PUSH2 0x239F JUMP JUMPDEST DUP1 ISZERO PUSH2 0x1418 JUMPI DUP1 PUSH1 0x1F LT PUSH2 0x13ED JUMPI PUSH2 0x100 DUP1 DUP4 SLOAD DIV MUL DUP4 MSTORE SWAP2 PUSH1 0x20 ADD SWAP2 PUSH2 0x1418 JUMP JUMPDEST DUP3 ADD SWAP2 SWAP1 PUSH1 0x0 MSTORE PUSH1 0x20 PUSH1 0x0 KECCAK256 SWAP1 JUMPDEST DUP2 SLOAD DUP2 MSTORE SWAP1 PUSH1 0x1 ADD SWAP1 PUSH1 0x20 ADD DUP1 DUP4 GT PUSH2 0x13FB JUMPI DUP3 SWAP1 SUB PUSH1 0x1F AND DUP3 ADD SWAP2 JUMPDEST POP POP POP POP POP DUP2 MSTORE PUSH1 0x20 ADD PUSH1 0x2 DUP3 ADD DUP1 SLOAD PUSH2 0x1431 SWAP1 PUSH2 0x239F JUMP JUMPDEST DUP1 PUSH1 0x1F ADD PUSH1 0x20 DUP1 SWAP2 DIV MUL PUSH1 0x20 ADD PUSH1 0x40 MLOAD SWAP1 DUP2 ADD PUSH1 0x40 MSTORE DUP1 SWAP3 SWAP2 SWAP1 DUP2 DUP2 MSTORE PUSH1 0x20 ADD DUP3 DUP1 SLOAD PUSH2 0x145D SWAP1 PUSH2 0x239F JUMP JUMPDEST DUP1 ISZERO PUSH2 0x14AA JUMPI DUP1 PUSH1 0x1F LT PUSH2 0x147F JUMPI PUSH2 0x100 DUP1 DUP4 SLOAD DIV MUL DUP4 MSTORE SWAP2 PUSH1 0x20 ADD SWAP2 PUSH2 0x14AA JUMP JUMPDEST DUP3 ADD SWAP2 SWAP1 PUSH1 0x0 MSTORE PUSH1 0x20 PUSH1 0x0 KECCAK256 SWAP1 JUMPDEST DUP2 SLOAD DUP2 MSTORE SWAP1 PUSH1 0x1 ADD SWAP1 PUSH1 0x20 ADD DUP1 DUP4 GT PUSH2 0x148D JUMPI DUP3 SWAP1 SUB PUSH1 0x1F AND DUP3 ADD SWAP2 JUMPDEST POP POP POP POP POP DUP2 MSTORE PUSH1 0x20 ADD PUSH1 0x3 DUP3 ADD PUSH1 0x0 SWAP1 SLOAD SWAP1 PUSH2 0x100 EXP SWAP1 DIV PUSH1 0x1 PUSH1 0x1 PUSH1 0xA0 SHL SUB AND PUSH1 0x1 PUSH1 0x1 PUSH1 0xA0 SHL SUB AND PUSH1 0x1 PUSH1 0x1 PUSH1 0xA0 SHL SUB AND DUP2 MSTORE PUSH1 0x20 ADD PUSH1 0x4 DUP3 ADD SLOAD DUP2 MSTORE PUSH1 0x20 ADD PUSH1 0x5 DUP3 ADD DUP1 SLOAD DUP1 PUSH1 0x20 MUL PUSH1 0x20 ADD PUSH1 0x40 MLOAD SWAP1 DUP2 ADD PUSH1 0x40 MSTORE DUP1 SWAP3 SWAP2 SWAP1 DUP2 DUP2 MSTORE PUSH1 0x20 ADD DUP3 DUP1 SLOAD DUP1 ISZERO PUSH2 0x1545 JUMPI PUSH1 0x20 MUL DUP3 ADD SWAP2 SWAP1 PUSH1 0x0 MSTORE PUSH1 0x20 PUSH1 0x0 KECCAK256 SWAP1 JUMPDEST DUP2 SLOAD PUSH1 0x1 PUSH1 0x1 PUSH1 0xA0 SHL SUB AND DUP2 MSTORE PUSH1 0x1 SWAP1 SWAP2 ADD SWAP1 PUSH1 0x20 ADD DUP1 DUP4 GT PUSH2 0x1527 JUMPI JUMPDEST POP POP POP POP POP DUP2 MSTORE POP POP SWAP1 POP PUSH1 0x6 PUSH1 0x0 DUP5 DUP2 MSTORE PUSH1 0x20 ADD SWAP1 DUP2 MSTORE PUSH1 0x20 ADD PUSH1 0x0 KECCAK256 DUP3 DUP2 SLOAD DUP2 LT PUSH2 0x1574 JUMPI PUSH2 0x1574 PUSH2 0x22FC JUMP JUMPDEST PUSH1 0x0 SWAP2 DUP3 MSTORE PUSH1 0x20 DUP3 KECCAK256 PUSH1 0x4 PUSH1 0x6 SWAP1 SWAP3 MUL ADD ADD DUP1 SLOAD SWAP2 PUSH2 0x1592 DUP4 PUSH2 0x23DA JUMP JUMPDEST SWAP1 SWAP2 SSTORE POP POP PUSH1 0x0 DUP4 DUP2 MSTORE PUSH1 0x6 PUSH1 0x20 MSTORE PUSH1 0x40 SWAP1 KECCAK256 DUP1 SLOAD DUP4 SWAP1 DUP2 LT PUSH2 0x15B7 JUMPI PUSH2 0x15B7 PUSH2 0x22FC JUMP JUMPDEST PUSH1 0x0 SWAP2 DUP3 MSTORE PUSH1 0x20 DUP1 DUP4 KECCAK256 PUSH1 0x60 DUP6 ADD DUP1 MLOAD PUSH1 0x6 SWAP5 SWAP1 SWAP5 MUL SWAP1 SWAP2 ADD PUSH1 0x5 ADD DUP1 SLOAD PUSH1 0x1 DUP1 DUP3 ADD DUP4 SSTORE SWAP2 DUP7 MSTORE DUP4 DUP7 KECCAK256 ADD DUP1 SLOAD PUSH1 0x1 PUSH1 0x1 PUSH1 0xA0 SHL SUB NOT AND PUSH1 0x1 PUSH1 0x1 PUSH1 0xA0 SHL SUB SWAP6 DUP7 AND OR SWAP1 SSTORE DUP8 DUP6 MSTORE PUSH1 0x4 DUP4 MSTORE PUSH1 0x40 DUP1 DUP7 KECCAK256 SWAP3 MLOAD SWAP1 SWAP5 AND DUP6 MSTORE SWAP2 MSTORE SWAP2 KECCAK256 DUP1 SLOAD PUSH1 0xFF NOT AND SWAP1 SWAP2 OR SWAP1 SSTORE PUSH1 0x2 DUP1 SLOAD DUP5 SWAP1 DUP2 LT PUSH2 0x1633 JUMPI PUSH2 0x1633 PUSH2 0x22FC JUMP JUMPDEST PUSH1 0x0 SWAP2 DUP3 MSTORE PUSH1 0x20 DUP3 KECCAK256 PUSH1 0x4 PUSH1 0xA SWAP1 SWAP3 MUL ADD ADD DUP1 SLOAD SWAP2 PUSH2 0x1651 DUP4 PUSH2 0x23DA JUMP JUMPDEST SWAP2 SWAP1 POP SSTORE POP DUP1 PUSH1 0x60 ADD MLOAD PUSH1 0x1 PUSH1 0x1 PUSH1 0xA0 SHL SUB AND PUSH32 0x6D72643834BBCCEA11DFEB41D4AA1A5977F5CB34F87719F71DAA6B2B76F29AA DUP3 PUSH1 0x40 ADD MLOAD TIMESTAMP PUSH1 0x40 MLOAD PUSH2 0x1699 SWAP3 SWAP2 SWAP1 PUSH2 0x2403 JUMP JUMPDEST PUSH1 0x40 MLOAD DUP1 SWAP2 SUB SWAP1 LOG2 POP POP POP JUMP JUMPDEST PUSH1 0x0 DUP2 DUP2 MSTORE PUSH1 0x7 PUSH1 0x20 MSTORE PUSH1 0x40 SWAP1 KECCAK256 SLOAD PUSH1 0x60 SWAP1 PUSH1 0xFF AND PUSH2 0x16D7 JUMPI PUSH1 0x40 MLOAD PUSH3 0x461BCD PUSH1 0xE5 SHL DUP2 MSTORE PUSH1 0x4 ADD PUSH2 0x1D3 SWAP1 PUSH2 0x22CF JUMP JUMPDEST PUSH1 0x0 DUP3 DUP2 MSTORE PUSH1 0x6 PUSH1 0x20 SWAP1 DUP2 MSTORE PUSH1 0x40 DUP1 DUP4 KECCAK256 DUP1 SLOAD DUP3 MLOAD DUP2 DUP6 MUL DUP2 ADD DUP6 ADD SWAP1 SWAP4 MSTORE DUP1 DUP4 MSTORE SWAP2 SWAP4 SWAP1 SWAP3 DUP5 ADD JUMPDEST DUP3 DUP3 LT ISZERO PUSH2 0x18FB JUMPI DUP4 DUP3 SWAP1 PUSH1 0x0 MSTORE PUSH1 0x20 PUSH1 0x0 KECCAK256 SWAP1 PUSH1 0x6 MUL ADD PUSH1 0x40 MLOAD DUP1 PUSH1 0xC0 ADD PUSH1 0x40 MSTORE SWAP1 DUP2 PUSH1 0x0 DUP3 ADD SLOAD DUP2 MSTORE PUSH1 0x20 ADD PUSH1 0x1 DUP3 ADD DUP1 SLOAD PUSH2 0x173D SWAP1 PUSH2 0x239F JUMP JUMPDEST DUP1 PUSH1 0x1F ADD PUSH1 0x20 DUP1 SWAP2 DIV MUL PUSH1 0x20 ADD PUSH1 0x40 MLOAD SWAP1 DUP2 ADD PUSH1 0x40 MSTORE DUP1 SWAP3 SWAP2 SWAP1 DUP2 DUP2 MSTORE PUSH1 0x20 ADD DUP3 DUP1 SLOAD PUSH2 0x1769 SWAP1 PUSH2 0x239F JUMP JUMPDEST DUP1 ISZERO PUSH2 0x17B6 JUMPI DUP1 PUSH1 0x1F LT PUSH2 0x178B JUMPI PUSH2 0x100 DUP1 DUP4 SLOAD DIV MUL DUP4 MSTORE SWAP2 PUSH1 0x20 ADD SWAP2 PUSH2 0x17B6 JUMP JUMPDEST DUP3 ADD SWAP2 SWAP1 PUSH1 0x0 MSTORE PUSH1 0x20 PUSH1 0x0 KECCAK256 SWAP1 JUMPDEST DUP2 SLOAD DUP2 MSTORE SWAP1 PUSH1 0x1 ADD SWAP1 PUSH1 0x20 ADD DUP1 DUP4 GT PUSH2 0x1799 JUMPI DUP3 SWAP1 SUB PUSH1 0x1F AND DUP3 ADD SWAP2 JUMPDEST POP POP POP POP POP DUP2 MSTORE PUSH1 0x20 ADD PUSH1 0x2 DUP3 ADD DUP1 SLOAD PUSH2 0x17CF SWAP1 PUSH2 0x239F JUMP JUMPDEST DUP1 PUSH1 0x1F ADD PUSH1 0x20 DUP1 SWAP2 DIV MUL PUSH1 0x20 ADD PUSH1 0x40 MLOAD SWAP1 DUP2 ADD PUSH1 0x40 MSTORE DUP1 SWAP3 SWAP2 SWAP1 DUP2 DUP2 MSTORE PUSH1 0x20 ADD DUP3 DUP1 SLOAD PUSH2 0x17FB SWAP1 PUSH2 0x239F JUMP JUMPDEST DUP1 ISZERO PUSH2 0x1848 JUMPI DUP1 PUSH1 0x1F LT PUSH2 0x181D JUMPI PUSH2 0x100 DUP1 DUP4 SLOAD DIV MUL DUP4 MSTORE SWAP2 PUSH1 0x20 ADD SWAP2 PUSH2 0x1848 JUMP JUMPDEST DUP3 ADD SWAP2 SWAP1 PUSH1 0x0 MSTORE PUSH1 0x20 PUSH1 0x0 KECCAK256 SWAP1 JUMPDEST DUP2 SLOAD DUP2 MSTORE SWAP1 PUSH1 0x1 ADD SWAP1 PUSH1 0x20 ADD DUP1 DUP4 GT PUSH2 0x182B JUMPI DUP3 SWAP1 SUB PUSH1 0x1F AND DUP3 ADD SWAP2 JUMPDEST POP POP POP POP POP DUP2 MSTORE PUSH1 0x20 ADD PUSH1 0x3 DUP3 ADD PUSH1 0x0 SWAP1 SLOAD SWAP1 PUSH2 0x100 EXP SWAP1 DIV PUSH1 0x1 PUSH1 0x1 PUSH1 0xA0 SHL SUB AND PUSH1 0x1 PUSH1 0x1 PUSH1 0xA0 SHL SUB AND PUSH1 0x1 PUSH1 0x1 PUSH1 0xA0 SHL SUB AND DUP2 MSTORE PUSH1 0x20 ADD PUSH1 0x4 DUP3 ADD SLOAD DUP2 MSTORE PUSH1 0x20 ADD PUSH1 0x5 DUP3 ADD DUP1 SLOAD DUP1 PUSH1 0x20 MUL PUSH1 0x20 ADD PUSH1 0x40 MLOAD SWAP1 DUP2 ADD PUSH1 0x40 MSTORE DUP1 SWAP3 SWAP2 SWAP1 DUP2 DUP2 MSTORE PUSH1 0x20 ADD DUP3 DUP1 SLOAD DUP1 ISZERO PUSH2 0x18E3 JUMPI PUSH1 0x20 MUL DUP3 ADD SWAP2 SWAP1 PUSH1 0x0 MSTORE PUSH1 0x20 PUSH1 0x0 KECCAK256 SWAP1 JUMPDEST DUP2 SLOAD PUSH1 0x1 PUSH1 0x1 PUSH1 0xA0 SHL SUB AND DUP2 MSTORE PUSH1 0x1 SWAP1 SWAP2 ADD SWAP1 PUSH1 0x20 ADD DUP1 DUP4 GT PUSH2 0x18C5 JUMPI JUMPDEST POP POP POP POP POP DUP2 MSTORE POP POP DUP2 MSTORE PUSH1 0x20 ADD SWAP1 PUSH1 0x1 ADD SWAP1 PUSH2 0x1700 JUMP JUMPDEST POP POP POP POP SWAP1 POP SWAP2 SWAP1 POP JUMP JUMPDEST CALLER PUSH1 0x0 DUP2 DUP2 MSTORE PUSH1 0x3 PUSH1 0x20 DUP2 SWAP1 MSTORE PUSH1 0x40 SWAP1 SWAP2 KECCAK256 ADD SLOAD PUSH1 0x1 PUSH1 0x1 PUSH1 0xA0 SHL SUB AND EQ PUSH2 0x1940 JUMPI PUSH1 0x40 MLOAD PUSH3 0x461BCD PUSH1 0xE5 SHL DUP2 MSTORE PUSH1 0x4 ADD PUSH2 0x1D3 SWAP1 PUSH2 0x22A3 JUMP JUMPDEST PUSH1 0x0 DUP5 MLOAD GT PUSH2 0x1985 JUMPI PUSH1 0x40 MLOAD PUSH3 0x461BCD PUSH1 0xE5 SHL DUP2 MSTORE PUSH1 0x20 PUSH1 0x4 DUP3 ADD MSTORE PUSH1 0x11 PUSH1 0x24 DUP3 ADD MSTORE PUSH17 0x151A5D1B19481A5CC81C995C5D5A5C9959 PUSH1 0x7A SHL PUSH1 0x44 DUP3 ADD MSTORE PUSH1 0x64 ADD PUSH2 0x1D3 JUMP JUMPDEST PUSH1 0x0 DUP4 MLOAD GT PUSH2 0x19D0 JUMPI PUSH1 0x40 MLOAD PUSH3 0x461BCD PUSH1 0xE5 SHL DUP2 MSTORE PUSH1 0x20 PUSH1 0x4 DUP3 ADD MSTORE PUSH1 0x17 PUSH1 0x24 DUP3 ADD MSTORE PUSH23 0x11195CD8DC9A5C1D1A5BDB881A5CC81C995C5D5A5C9959 PUSH1 0x4A SHL PUSH1 0x44 DUP3 ADD MSTORE PUSH1 0x64 ADD PUSH2 0x1D3 JUMP JUMPDEST PUSH1 0x0 DUP3 GT DUP1 ISZERO PUSH2 0x19DF JUMPI POP DUP2 DUP2 GT JUMPDEST PUSH2 0x19FB JUMPI PUSH1 0x40 MLOAD PUSH3 0x461BCD PUSH1 0xE5 SHL DUP2 MSTORE PUSH1 0x4 ADD PUSH2 0x1D3 SWAP1 PUSH2 0x2357 JUMP JUMPDEST PUSH1 0x0 DUP2 GT PUSH2 0x1A42 JUMPI PUSH1 0x40 MLOAD PUSH3 0x461BCD PUSH1 0xE5 SHL DUP2 MSTORE PUSH1 0x20 PUSH1 0x4 DUP3 ADD MSTORE PUSH1 0x14 PUSH1 0x24 DUP3 ADD MSTORE PUSH20 0x115B99081D1A5B59481A5CC81C995C5D5A5C9959 PUSH1 0x62 SHL PUSH1 0x44 DUP3 ADD MSTORE PUSH1 0x64 ADD PUSH2 0x1D3 JUMP JUMPDEST PUSH2 0x1A4A PUSH2 0x1C5D JUMP JUMPDEST PUSH1 0x0 DUP1 SLOAD SWAP1 DUP1 PUSH2 0x1A59 DUP4 PUSH2 0x23DA JUMP JUMPDEST SWAP1 SWAP2 SSTORE POP DUP2 MSTORE PUSH1 0x20 DUP1 DUP3 ADD DUP8 DUP2 MSTORE PUSH1 0x40 DUP4 ADD DUP8 SWAP1 MSTORE PUSH1 0x60 DUP4 ADD DUP7 SWAP1 MSTORE PUSH2 0x100 DUP4 ADD DUP6 SWAP1 MSTORE PUSH2 0x120 DUP4 ADD DUP5 SWAP1 MSTORE TIMESTAMP PUSH2 0x140 DUP5 ADD MSTORE CALLER PUSH1 0xE0 DUP5 ADD MSTORE PUSH1 0x2 DUP1 SLOAD PUSH1 0x1 DUP2 ADD DUP3 SSTORE PUSH1 0x0 SWAP2 SWAP1 SWAP2 MSTORE DUP4 MLOAD PUSH32 0x405787FA12A823E0F2B7631CC41B3BA8828B3321CA811111FA75CD3AA3BB5ACE PUSH1 0xA SWAP1 SWAP3 MUL SWAP2 DUP3 ADD SWAP1 DUP2 SSTORE SWAP2 MLOAD DUP1 MLOAD DUP6 SWAP5 PUSH2 0x1B04 SWAP4 PUSH32 0x405787FA12A823E0F2B7631CC41B3BA8828B3321CA811111FA75CD3AA3BB5ACF ADD SWAP3 ADD SWAP1 PUSH2 0x1BD9 JUMP JUMPDEST POP PUSH1 0x40 DUP3 ADD MLOAD DUP1 MLOAD PUSH2 0x1B20 SWAP2 PUSH1 0x2 DUP5 ADD SWAP2 PUSH1 0x20 SWAP1 SWAP2 ADD SWAP1 PUSH2 0x1BD9 JUMP JUMPDEST POP PUSH1 0x60 DUP3 ADD MLOAD DUP1 MLOAD PUSH2 0x1B3C SWAP2 PUSH1 0x3 DUP5 ADD SWAP2 PUSH1 0x20 SWAP1 SWAP2 ADD SWAP1 PUSH2 0x1BD9 JUMP JUMPDEST POP PUSH1 0x80 DUP3 ADD MLOAD PUSH1 0x4 DUP3 ADD SSTORE PUSH1 0xA0 DUP3 ADD MLOAD PUSH1 0x5 DUP3 ADD SSTORE PUSH1 0xC0 DUP3 ADD MLOAD PUSH1 0x6 DUP3 ADD DUP1 SLOAD PUSH1 0xE0 DUP6 ADD MLOAD PUSH1 0x1 PUSH1 0x1 PUSH1 0xA8 SHL SUB NOT SWAP1 SWAP2 AND SWAP3 ISZERO ISZERO PUSH2 0x100 PUSH1 0x1 PUSH1 0xA8 SHL SUB NOT AND SWAP3 SWAP1 SWAP3 OR PUSH2 0x100 PUSH1 0x1 PUSH1 0x1 PUSH1 0xA0 SHL SUB SWAP1 SWAP4 AND DUP4 MUL OR SWAP1 SSTORE DUP3 ADD MLOAD PUSH1 0x7 DUP1 DUP4 ADD SWAP2 SWAP1 SWAP2 SSTORE PUSH2 0x120 DUP4 ADD MLOAD PUSH1 0x8 DUP4 ADD SSTORE PUSH2 0x140 SWAP1 SWAP3 ADD MLOAD PUSH1 0x9 SWAP1 SWAP2 ADD SSTORE SWAP1 MLOAD PUSH1 0x0 SWAP1 DUP2 MSTORE PUSH1 0x20 SWAP2 SWAP1 SWAP2 MSTORE PUSH1 0x40 SWAP1 KECCAK256 DUP1 SLOAD PUSH1 0xFF NOT AND PUSH1 0x1 OR SWAP1 SSTORE POP POP POP POP POP JUMP JUMPDEST DUP3 DUP1 SLOAD PUSH2 0x1BE5 SWAP1 PUSH2 0x239F JUMP JUMPDEST SWAP1 PUSH1 0x0 MSTORE PUSH1 0x20 PUSH1 0x0 KECCAK256 SWAP1 PUSH1 0x1F ADD PUSH1 0x20 SWAP1 DIV DUP2 ADD SWAP3 DUP3 PUSH2 0x1C07 JUMPI PUSH1 0x0 DUP6 SSTORE PUSH2 0x1C4D JUMP JUMPDEST DUP3 PUSH1 0x1F LT PUSH2 0x1C20 JUMPI DUP1 MLOAD PUSH1 0xFF NOT AND DUP4 DUP1 ADD OR DUP6 SSTORE PUSH2 0x1C4D JUMP JUMPDEST DUP3 DUP1 ADD PUSH1 0x1 ADD DUP6 SSTORE DUP3 ISZERO PUSH2 0x1C4D JUMPI SWAP2 DUP3 ADD JUMPDEST DUP3 DUP2 GT ISZERO PUSH2 0x1C4D JUMPI DUP3 MLOAD DUP3 SSTORE SWAP2 PUSH1 0x20 ADD SWAP2 SWAP1 PUSH1 0x1 ADD SWAP1 PUSH2 0x1C32 JUMP JUMPDEST POP PUSH2 0x1C59 SWAP3 SWAP2 POP PUSH2 0x1D17 JUMP JUMPDEST POP SWAP1 JUMP JUMPDEST PUSH1 0x40 MLOAD DUP1 PUSH2 0x160 ADD PUSH1 0x40 MSTORE DUP1 PUSH1 0x0 DUP2 MSTORE PUSH1 0x20 ADD PUSH1 0x60 DUP2 MSTORE PUSH1 0x20 ADD PUSH1 0x60 DUP2 MSTORE PUSH1 0x20 ADD PUSH1 0x60 DUP2 MSTORE PUSH1 0x20 ADD PUSH1 0x0 DUP2 MSTORE PUSH1 0x20 ADD PUSH1 0x0 DUP2 MSTORE PUSH1 0x20 ADD PUSH1 0x0 ISZERO ISZERO DUP2 MSTORE PUSH1 0x20 ADD PUSH1 0x0 PUSH1 0x1 PUSH1 0x1 PUSH1 0xA0 SHL SUB AND DUP2 MSTORE PUSH1 0x20 ADD PUSH1 0x0 DUP2 MSTORE PUSH1 0x20 ADD PUSH1 0x0 DUP2 MSTORE PUSH1 0x20 ADD PUSH1 0x0 DUP2 MSTORE POP SWAP1 JUMP JUMPDEST DUP3 DUP1 SLOAD DUP3 DUP3 SSTORE SWAP1 PUSH1 0x0 MSTORE PUSH1 0x20 PUSH1 0x0 KECCAK256 SWAP1 DUP2 ADD SWAP3 DUP3 ISZERO PUSH2 0x1C4D JUMPI SWAP2 PUSH1 0x20 MUL DUP3 ADD JUMPDEST DUP3 DUP2 GT ISZERO PUSH2 0x1C4D JUMPI DUP3 MLOAD DUP3 SLOAD PUSH1 0x1 PUSH1 0x1 PUSH1 0xA0 SHL SUB NOT AND PUSH1 0x1 PUSH1 0x1 PUSH1 0xA0 SHL SUB SWAP1 SWAP2 AND OR DUP3 SSTORE PUSH1 0x20 SWAP1 SWAP3 ADD SWAP2 PUSH1 0x1 SWAP1 SWAP2 ADD SWAP1 PUSH2 0x1CE2 JUMP JUMPDEST JUMPDEST DUP1 DUP3 GT ISZERO PUSH2 0x1C59 JUMPI PUSH1 0x0 DUP2 SSTORE PUSH1 0x1 ADD PUSH2 0x1D18 JUMP JUMPDEST PUSH4 0x4E487B71 PUSH1 0xE0 SHL PUSH1 0x0 MSTORE PUSH1 0x41 PUSH1 0x4 MSTORE PUSH1 0x24 PUSH1 0x0 REVERT JUMPDEST PUSH1 0x0 DUP3 PUSH1 0x1F DUP4 ADD SLT PUSH2 0x1D53 JUMPI PUSH1 0x0 DUP1 REVERT JUMPDEST DUP2 CALLDATALOAD PUSH8 0xFFFFFFFFFFFFFFFF DUP1 DUP3 GT ISZERO PUSH2 0x1D6E JUMPI PUSH2 0x1D6E PUSH2 0x1D2C JUMP JUMPDEST PUSH1 0x40 MLOAD PUSH1 0x1F DUP4 ADD PUSH1 0x1F NOT SWAP1 DUP2 AND PUSH1 0x3F ADD AND DUP2 ADD SWAP1 DUP3 DUP3 GT DUP2 DUP4 LT OR ISZERO PUSH2 0x1D96 JUMPI PUSH2 0x1D96 PUSH2 0x1D2C JUMP JUMPDEST DUP2 PUSH1 0x40 MSTORE DUP4 DUP2 MSTORE DUP7 PUSH1 0x20 DUP6 DUP9 ADD ADD GT ISZERO PUSH2 0x1DAF JUMPI PUSH1 0x0 DUP1 REVERT JUMPDEST DUP4 PUSH1 0x20 DUP8 ADD PUSH1 0x20 DUP4 ADD CALLDATACOPY PUSH1 0x0 PUSH1 0x20 DUP6 DUP4 ADD ADD MSTORE DUP1 SWAP5 POP POP POP POP POP SWAP3 SWAP2 POP POP JUMP JUMPDEST PUSH1 0x0 DUP1 PUSH1 0x0 DUP1 PUSH1 0x0 DUP1 PUSH1 0xC0 DUP8 DUP10 SUB SLT ISZERO PUSH2 0x1DE8 JUMPI PUSH1 0x0 DUP1 REVERT JUMPDEST DUP7 CALLDATALOAD SWAP6 POP PUSH1 0x20 DUP8 ADD CALLDATALOAD PUSH8 0xFFFFFFFFFFFFFFFF DUP1 DUP3 GT ISZERO PUSH2 0x1E07 JUMPI PUSH1 0x0 DUP1 REVERT JUMPDEST PUSH2 0x1E13 DUP11 DUP4 DUP12 ADD PUSH2 0x1D42 JUMP JUMPDEST SWAP7 POP PUSH1 0x40 DUP10 ADD CALLDATALOAD SWAP2 POP DUP1 DUP3 GT ISZERO PUSH2 0x1E29 JUMPI PUSH1 0x0 DUP1 REVERT JUMPDEST PUSH2 0x1E35 DUP11 DUP4 DUP12 ADD PUSH2 0x1D42 JUMP JUMPDEST SWAP6 POP PUSH1 0x60 DUP10 ADD CALLDATALOAD SWAP2 POP DUP1 DUP3 GT ISZERO PUSH2 0x1E4B JUMPI PUSH1 0x0 DUP1 REVERT JUMPDEST POP PUSH2 0x1E58 DUP10 DUP3 DUP11 ADD PUSH2 0x1D42 JUMP JUMPDEST SWAP4 POP POP PUSH1 0x80 DUP8 ADD CALLDATALOAD SWAP2 POP PUSH1 0xA0 DUP8 ADD CALLDATALOAD SWAP1 POP SWAP3 SWAP6 POP SWAP3 SWAP6 POP SWAP3 SWAP6 JUMP JUMPDEST PUSH1 0x0 PUSH1 0x20 DUP3 DUP5 SUB SLT ISZERO PUSH2 0x1E85 JUMPI PUSH1 0x0 DUP1 REVERT JUMPDEST POP CALLDATALOAD SWAP2 SWAP1 POP JUMP JUMPDEST PUSH1 0x0 DUP2 MLOAD DUP1 DUP5 MSTORE PUSH1 0x0 JUMPDEST DUP2 DUP2 LT ISZERO PUSH2 0x1EB2 JUMPI PUSH1 0x20 DUP2 DUP6 ADD DUP2 ADD MLOAD DUP7 DUP4 ADD DUP3 ADD MSTORE ADD PUSH2 0x1E96 JUMP JUMPDEST DUP2 DUP2 GT ISZERO PUSH2 0x1EC4 JUMPI PUSH1 0x0 PUSH1 0x20 DUP4 DUP8 ADD ADD MSTORE JUMPDEST POP PUSH1 0x1F ADD PUSH1 0x1F NOT AND SWAP3 SWAP1 SWAP3 ADD PUSH1 0x20 ADD SWAP3 SWAP2 POP POP JUMP JUMPDEST PUSH1 0x0 PUSH2 0x160 DUP3 MLOAD DUP5 MSTORE PUSH1 0x20 DUP4 ADD MLOAD DUP2 PUSH1 0x20 DUP7 ADD MSTORE PUSH2 0x1EF9 DUP3 DUP7 ADD DUP3 PUSH2 0x1E8C JUMP JUMPDEST SWAP2 POP POP PUSH1 0x40 DUP4 ADD MLOAD DUP5 DUP3 SUB PUSH1 0x40 DUP7 ADD MSTORE PUSH2 0x1F13 DUP3 DUP3 PUSH2 0x1E8C JUMP JUMPDEST SWAP2 POP POP PUSH1 0x60 DUP4 ADD MLOAD DUP5 DUP3 SUB PUSH1 0x60 DUP7 ADD MSTORE PUSH2 0x1F2D DUP3 DUP3 PUSH2 0x1E8C JUMP JUMPDEST SWAP2 POP POP PUSH1 0x80 DUP4 ADD MLOAD PUSH1 0x80 DUP6 ADD MSTORE PUSH1 0xA0 DUP4 ADD MLOAD PUSH1 0xA0 DUP6 ADD MSTORE PUSH1 0xC0 DUP4 ADD MLOAD PUSH2 0x1F57 PUSH1 0xC0 DUP7 ADD DUP3 ISZERO ISZERO SWAP1 MSTORE JUMP JUMPDEST POP PUSH1 0xE0 DUP4 ADD MLOAD PUSH2 0x1F72 PUSH1 0xE0 DUP7 ADD DUP3 PUSH1 0x1 PUSH1 0x1 PUSH1 0xA0 SHL SUB AND SWAP1 MSTORE JUMP JUMPDEST POP PUSH2 0x100 DUP4 DUP2 ADD MLOAD SWAP1 DUP6 ADD MSTORE PUSH2 0x120 DUP1 DUP5 ADD MLOAD SWAP1 DUP6 ADD MSTORE PUSH2 0x140 SWAP3 DUP4 ADD MLOAD SWAP3 SWAP1 SWAP4 ADD SWAP2 SWAP1 SWAP2 MSTORE POP SWAP1 JUMP JUMPDEST PUSH1 0x20 DUP2 MSTORE PUSH1 0x0 PUSH2 0x1FAF PUSH1 0x20 DUP4 ADD DUP5 PUSH2 0x1ED9 JUMP JUMPDEST SWAP4 SWAP3 POP POP POP JUMP JUMPDEST PUSH1 0x0 PUSH1 0x20 DUP1 DUP4 ADD DUP2 DUP5 MSTORE DUP1 DUP6 MLOAD DUP1 DUP4 MSTORE PUSH1 0x40 DUP7 ADD SWAP2 POP PUSH1 0x40 DUP2 PUSH1 0x5 SHL DUP8 ADD ADD SWAP3 POP DUP4 DUP8 ADD PUSH1 0x0 JUMPDEST DUP3 DUP2 LT ISZERO PUSH2 0x200B JUMPI PUSH1 0x3F NOT DUP9 DUP7 SUB ADD DUP5 MSTORE PUSH2 0x1FF9 DUP6 DUP4 MLOAD PUSH2 0x1ED9 JUMP JUMPDEST SWAP5 POP SWAP3 DUP6 ADD SWAP3 SWAP1 DUP6 ADD SWAP1 PUSH1 0x1 ADD PUSH2 0x1FDD JUMP JUMPDEST POP SWAP3 SWAP8 SWAP7 POP POP POP POP POP POP POP JUMP JUMPDEST PUSH1 0x0 DUP1 PUSH1 0x40 DUP4 DUP6 SUB SLT ISZERO PUSH2 0x202B JUMPI PUSH1 0x0 DUP1 REVERT JUMPDEST DUP3 CALLDATALOAD PUSH8 0xFFFFFFFFFFFFFFFF DUP1 DUP3 GT ISZERO PUSH2 0x2043 JUMPI PUSH1 0x0 DUP1 REVERT JUMPDEST PUSH2 0x204F DUP7 DUP4 DUP8 ADD PUSH2 0x1D42 JUMP JUMPDEST SWAP4 POP PUSH1 0x20 DUP6 ADD CALLDATALOAD SWAP2 POP DUP1 DUP3 GT ISZERO PUSH2 0x2065 JUMPI PUSH1 0x0 DUP1 REVERT JUMPDEST POP PUSH2 0x2072 DUP6 DUP3 DUP7 ADD PUSH2 0x1D42 JUMP JUMPDEST SWAP2 POP POP SWAP3 POP SWAP3 SWAP1 POP JUMP JUMPDEST PUSH1 0x0 PUSH1 0x20 DUP3 DUP5 SUB SLT ISZERO PUSH2 0x208E JUMPI PUSH1 0x0 DUP1 REVERT JUMPDEST DUP2 CALLDATALOAD PUSH1 0x1 PUSH1 0x1 PUSH1 0xA0 SHL SUB DUP2 AND DUP2 EQ PUSH2 0x1FAF JUMPI PUSH1 0x0 DUP1 REVERT JUMPDEST DUP6 DUP2 MSTORE PUSH1 0xA0 PUSH1 0x20 DUP3 ADD MSTORE PUSH1 0x0 PUSH2 0x20BE PUSH1 0xA0 DUP4 ADD DUP8 PUSH2 0x1E8C JUMP JUMPDEST DUP3 DUP2 SUB PUSH1 0x40 DUP5 ADD MSTORE PUSH2 0x20D0 DUP2 DUP8 PUSH2 0x1E8C JUMP JUMPDEST PUSH1 0x1 PUSH1 0x1 PUSH1 0xA0 SHL SUB SWAP6 SWAP1 SWAP6 AND PUSH1 0x60 DUP5 ADD MSTORE POP POP PUSH1 0x80 ADD MSTORE SWAP4 SWAP3 POP POP POP JUMP JUMPDEST PUSH1 0x0 DUP1 PUSH1 0x40 DUP4 DUP6 SUB SLT ISZERO PUSH2 0x2101 JUMPI PUSH1 0x0 DUP1 REVERT JUMPDEST POP POP DUP1 CALLDATALOAD SWAP3 PUSH1 0x20 SWAP1 SWAP2 ADD CALLDATALOAD SWAP2 POP JUMP JUMPDEST PUSH1 0x0 PUSH1 0x20 DUP1 DUP4 ADD DUP2 DUP5 MSTORE DUP1 DUP6 MLOAD DUP1 DUP4 MSTORE PUSH1 0x40 SWAP3 POP DUP3 DUP7 ADD SWAP2 POP DUP3 DUP2 PUSH1 0x5 SHL DUP8 ADD ADD DUP5 DUP9 ADD PUSH1 0x0 DUP1 JUMPDEST DUP5 DUP2 LT ISZERO PUSH2 0x21FA JUMPI PUSH1 0x3F NOT DUP11 DUP6 SUB ADD DUP7 MSTORE DUP3 MLOAD PUSH1 0xC0 DUP2 MLOAD DUP7 MSTORE DUP10 DUP3 ADD MLOAD DUP2 DUP12 DUP9 ADD MSTORE PUSH2 0x2166 DUP3 DUP9 ADD DUP3 PUSH2 0x1E8C JUMP JUMPDEST SWAP2 POP POP DUP9 DUP3 ADD MLOAD DUP7 DUP3 SUB DUP11 DUP9 ADD MSTORE PUSH2 0x217E DUP3 DUP3 PUSH2 0x1E8C JUMP JUMPDEST PUSH1 0x60 DUP5 DUP2 ADD MLOAD PUSH1 0x1 PUSH1 0x1 PUSH1 0xA0 SHL SUB SWAP1 DUP2 AND SWAP2 DUP11 ADD SWAP2 SWAP1 SWAP2 MSTORE PUSH1 0x80 DUP1 DUP7 ADD MLOAD SWAP1 DUP11 ADD MSTORE PUSH1 0xA0 SWAP5 DUP6 ADD MLOAD DUP10 DUP4 SUB SWAP6 DUP11 ADD SWAP6 SWAP1 SWAP6 MSTORE DUP5 MLOAD DUP1 DUP4 MSTORE SWAP5 DUP14 ADD SWAP5 DUP8 SWAP5 POP SWAP2 DUP14 ADD SWAP3 POP JUMPDEST DUP2 DUP5 LT ISZERO PUSH2 0x21E4 JUMPI DUP5 MLOAD DUP2 AND DUP4 MSTORE SWAP4 DUP13 ADD SWAP4 PUSH1 0x1 SWAP4 SWAP1 SWAP4 ADD SWAP3 SWAP2 DUP13 ADD SWAP2 PUSH2 0x21C2 JUMP JUMPDEST POP POP SWAP8 DUP11 ADD SWAP8 SWAP6 POP POP POP SWAP2 DUP8 ADD SWAP2 PUSH1 0x1 ADD PUSH2 0x2138 JUMP JUMPDEST POP SWAP2 SWAP10 SWAP9 POP POP POP POP POP POP POP POP POP JUMP JUMPDEST PUSH1 0x0 DUP1 PUSH1 0x0 DUP1 PUSH1 0x0 PUSH1 0xA0 DUP7 DUP9 SUB SLT ISZERO PUSH2 0x2221 JUMPI PUSH1 0x0 DUP1 REVERT JUMPDEST DUP6 CALLDATALOAD PUSH8 0xFFFFFFFFFFFFFFFF DUP1 DUP3 GT ISZERO PUSH2 0x2239 JUMPI PUSH1 0x0 DUP1 REVERT JUMPDEST PUSH2 0x2245 DUP10 DUP4 DUP11 ADD PUSH2 0x1D42 JUMP JUMPDEST SWAP7 POP PUSH1 0x20 DUP9 ADD CALLDATALOAD SWAP2 POP DUP1 DUP3 GT ISZERO PUSH2 0x225B JUMPI PUSH1 0x0 DUP1 REVERT JUMPDEST PUSH2 0x2267 DUP10 DUP4 DUP11 ADD PUSH2 0x1D42 JUMP JUMPDEST SWAP6 POP PUSH1 0x40 DUP9 ADD CALLDATALOAD SWAP2 POP DUP1 DUP3 GT ISZERO PUSH2 0x227D JUMPI PUSH1 0x0 DUP1 REVERT JUMPDEST POP PUSH2 0x228A DUP9 DUP3 DUP10 ADD PUSH2 0x1D42 JUMP JUMPDEST SWAP6 SWAP9 SWAP5 SWAP8 POP SWAP5 SWAP6 PUSH1 0x60 DUP2 ADD CALLDATALOAD SWAP6 POP PUSH1 0x80 ADD CALLDATALOAD SWAP4 SWAP3 POP POP POP JUMP JUMPDEST PUSH1 0x20 DUP1 DUP3 MSTORE PUSH1 0x12 SWAP1 DUP3 ADD MSTORE PUSH18 0x2CB7BA9030B932903737BA1030903AB9B2B9 PUSH1 0x71 SHL PUSH1 0x40 DUP3 ADD MSTORE PUSH1 0x60 ADD SWAP1 JUMP JUMPDEST PUSH1 0x20 DUP1 DUP3 MSTORE PUSH1 0x13 SWAP1 DUP3 ADD MSTORE PUSH19 0x141BDB1B08191BD95CC81B9BDD08195E1A5CDD PUSH1 0x6A SHL PUSH1 0x40 DUP3 ADD MSTORE PUSH1 0x60 ADD SWAP1 JUMP JUMPDEST PUSH4 0x4E487B71 PUSH1 0xE0 SHL PUSH1 0x0 MSTORE PUSH1 0x32 PUSH1 0x4 MSTORE PUSH1 0x24 PUSH1 0x0 REVERT JUMPDEST PUSH1 0x20 DUP1 DUP3 MSTORE PUSH1 0x25 SWAP1 DUP3 ADD MSTORE PUSH32 0x596F7520617265206E6F7420746865206469726563746F72206F662074686973 PUSH1 0x40 DUP3 ADD MSTORE PUSH5 0x81C1BDB1B PUSH1 0xDA SHL PUSH1 0x60 DUP3 ADD MSTORE PUSH1 0x80 ADD SWAP1 JUMP JUMPDEST PUSH1 0x20 DUP1 DUP3 MSTORE PUSH1 0x28 SWAP1 DUP3 ADD MSTORE PUSH32 0x456E642064617465206D7573742062652067726561746572207468616E207374 PUSH1 0x40 DUP3 ADD MSTORE PUSH8 0x6172742064617465 PUSH1 0xC0 SHL PUSH1 0x60 DUP3 ADD MSTORE PUSH1 0x80 ADD SWAP1 JUMP JUMPDEST PUSH1 0x1 DUP2 DUP2 SHR SWAP1 DUP3 AND DUP1 PUSH2 0x23B3 JUMPI PUSH1 0x7F DUP3 AND SWAP2 POP JUMPDEST PUSH1 0x20 DUP3 LT DUP2 EQ ISZERO PUSH2 0x23D4 JUMPI PUSH4 0x4E487B71 PUSH1 0xE0 SHL PUSH1 0x0 MSTORE PUSH1 0x22 PUSH1 0x4 MSTORE PUSH1 0x24 PUSH1 0x0 REVERT JUMPDEST POP SWAP2 SWAP1 POP JUMP JUMPDEST PUSH1 0x0 PUSH1 0x0 NOT DUP3 EQ ISZERO PUSH2 0x23FC JUMPI PUSH4 0x4E487B71 PUSH1 0xE0 SHL PUSH1 0x0 MSTORE PUSH1 0x11 PUSH1 0x4 MSTORE PUSH1 0x24 PUSH1 0x0 REVERT JUMPDEST POP PUSH1 0x1 ADD SWAP1 JUMP JUMPDEST PUSH1 0x40 DUP2 MSTORE PUSH1 0x0 PUSH2 0x2416 PUSH1 0x40 DUP4 ADD DUP6 PUSH2 0x1E8C JUMP JUMPDEST SWAP1 POP DUP3 PUSH1 0x20 DUP4 ADD MSTORE SWAP4 SWAP3 POP POP POP JUMP INVALID LOG2 PUSH5 0x6970667358 0x22 SLT KECCAK256 GAS PUSH9 0xFA56C4A82DFDCE9C4F PUSH32 0xA2AE6FE1B0294F9BC1D12C2F21D08923CA6002C364736F6C634300080B003300 "},"methodIdentifiers":{"contest(uint256)":"9d1c0bc6","createPoll(string,string,string,uint256,uint256)":"f0d0bc45","deletePoll(uint256)":"1f35b51d","getAllPolls()":"32b633fa","getPoll(uint256)":"1a8cbcaa","listContestants(uint256)":"dd2b4bd4","register(string,string)":"3ffbd47f","updatePoll(uint256,string,string,string,uint256,uint256)":"029433f0","users(address)":"a87430ba","vote(uint256,uint256)":"b384abef"}}}}}