{
  "_format": "hh-sol-artifact-1",
  "contractName": "DVoting",
  "sourceName": "src/contracts/DVoting.sol",
  "abi": [
    {
      "anonymous": false,
      "inputs": [
        {
          "indexed": false,
          "internalType": "string",
          "name": "fullname",
          "type": "string"
        },
        {
          "indexed": true,
          "internalType": "address",
          "name": "voter",
          "type": "address"
        },
        {
          "indexed": false,
          "internalType": "uint256",
          "name": "timestamp",
          "type": "uint256"
        }
      ],
      "name": "Voted",
      "type": "event"
    },
    {
      "inputs": [
        {
          "internalType": "uint256",
          "name": "id",
          "type": "uint256"
        }
      ],
      "name": "contest",
      "outputs": [],
      "stateMutability": "nonpayable",
      "type": "function"
    },
    {
      "inputs": [
        {
          "internalType": "string",
          "name": "image",
          "type": "string"
        },
        {
          "internalType": "string",
          "name": "title",
          "type": "string"
        },
        {
          "internalType": "string",
          "name": "description",
          "type": "string"
        },
        {
          "internalType": "uint256",
          "name": "startsAt",
          "type": "uint256"
        },
        {
          "internalType": "uint256",
          "name": "endsAt",
          "type": "uint256"
        }
      ],
      "name": "createPoll",
      "outputs": [],
      "stateMutability": "nonpayable",
      "type": "function"
    },
    {
      "inputs": [
        {
          "internalType": "uint256",
          "name": "id",
          "type": "uint256"
        }
      ],
      "name": "deletePoll",
      "outputs": [],
      "stateMutability": "nonpayable",
      "type": "function"
    },
    {
      "inputs": [],
      "name": "getAllPolls",
      "outputs": [
        {
          "components": [
            {
              "internalType": "uint256",
              "name": "id",
              "type": "uint256"
            },
            {
              "internalType": "string",
              "name": "image",
              "type": "string"
            },
            {
              "internalType": "string",
              "name": "title",
              "type": "string"
            },
            {
              "internalType": "string",
              "name": "description",
              "type": "string"
            },
            {
              "internalType": "uint256",
              "name": "votes",
              "type": "uint256"
            },
            {
              "internalType": "uint256",
              "name": "contestants",
              "type": "uint256"
            },
            {
              "internalType": "bool",
              "name": "deleted",
              "type": "bool"
            },
            {
              "internalType": "address",
              "name": "director",
              "type": "address"
            },
            {
              "internalType": "uint256",
              "name": "startsAt",
              "type": "uint256"
            },
            {
              "internalType": "uint256",
              "name": "endsAt",
              "type": "uint256"
            },
            {
              "internalType": "uint256",
              "name": "timestamp",
              "type": "uint256"
            }
          ],
          "internalType": "struct DVoting.PollsStruct[]",
          "name": "",
          "type": "tuple[]"
        }
      ],
      "stateMutability": "view",
      "type": "function"
    },
    {
      "inputs": [
        {
          "internalType": "uint256",
          "name": "id",
          "type": "uint256"
        }
      ],
      "name": "getPoll",
      "outputs": [
        {
          "components": [
            {
              "internalType": "uint256",
              "name": "id",
              "type": "uint256"
            },
            {
              "internalType": "string",
              "name": "image",
              "type": "string"
            },
            {
              "internalType": "string",
              "name": "title",
              "type": "string"
            },
            {
              "internalType": "string",
              "name": "description",
              "type": "string"
            },
            {
              "internalType": "uint256",
              "name": "votes",
              "type": "uint256"
            },
            {
              "internalType": "uint256",
              "name": "contestants",
              "type": "uint256"
            },
            {
              "internalType": "bool",
              "name": "deleted",
              "type": "bool"
            },
            {
              "internalType": "address",
              "name": "director",
              "type": "address"
            },
            {
              "internalType": "uint256",
              "name": "startsAt",
              "type": "uint256"
            },
            {
              "internalType": "uint256",
              "name": "endsAt",
              "type": "uint256"
            },
            {
              "internalType": "uint256",
              "name": "timestamp",
              "type": "uint256"
            }
          ],
          "internalType": "struct DVoting.PollsStruct",
          "name": "",
          "type": "tuple"
        }
      ],
      "stateMutability": "view",
      "type": "function"
    },
    {
      "inputs": [
        {
          "internalType": "uint256",
          "name": "id",
          "type": "uint256"
        }
      ],
      "name": "listContestants",
      "outputs": [
        {
          "components": [
            {
              "internalType": "uint256",
              "name": "id",
              "type": "uint256"
            },
            {
              "internalType": "string",
              "name": "image",
              "type": "string"
            },
            {
              "internalType": "string",
              "name": "fullname",
              "type": "string"
            },
            {
              "internalType": "address",
              "name": "voter",
              "type": "address"
            },
            {
              "internalType": "uint256",
              "name": "votes",
              "type": "uint256"
            },
            {
              "internalType": "address[]",
              "name": "voters",
              "type": "address[]"
            }
          ],
          "internalType": "struct DVoting.VoterStruct[]",
          "name": "",
          "type": "tuple[]"
        }
      ],
      "stateMutability": "view",
      "type": "function"
    },
    {
      "inputs": [
        {
          "internalType": "string",
          "name": "image",
          "type": "string"
        },
        {
          "internalType": "string",
          "name": "fullname",
          "type": "string"
        }
      ],
      "name": "register",
      "outputs": [],
      "stateMutability": "nonpayable",
      "type": "function"
    },
    {
      "inputs": [
        {
          "internalType": "uint256",
          "name": "id",
          "type": "uint256"
        },
        {
          "internalType": "string",
          "name": "image",
          "type": "string"
        },
        {
          "internalType": "string",
          "name": "title",
          "type": "string"
        },
        {
          "internalType": "string",
          "name": "description",
          "type": "string"
        },
        {
          "internalType": "uint256",
          "name": "startsAt",
          "type": "uint256"
        },
        {
          "internalType": "uint256",
          "name": "endsAt",
          "type": "uint256"
        }
      ],
      "name": "updatePoll",
      "outputs": [],
      "stateMutability": "nonpayable",
      "type": "function"
    },
    {
      "inputs": [
        {
          "internalType": "address",
          "name": "",
          "type": "address"
        }
      ],
      "name": "users",
      "outputs": [
        {
          "internalType": "uint256",
          "name": "id",
          "type": "uint256"
        },
        {
          "internalType": "string",
          "name": "image",
          "type": "string"
        },
        {
          "internalType": "string",
          "name": "fullname",
          "type": "string"
        },
        {
          "internalType": "address",
          "name": "voter",
          "type": "address"
        },
        {
          "internalType": "uint256",
          "name": "votes",
          "type": "uint256"
        }
      ],
      "stateMutability": "view",
      "type": "function"
    },
    {
      "inputs": [
        {
          "internalType": "uint256",
          "name": "id",
          "type": "uint256"
        },
        {
          "internalType": "uint256",
          "name": "cid",
          "type": "uint256"
        }
      ],
      "name": "vote",
      "outputs": [],
      "stateMutability": "nonpayable",
      "type": "function"
    }
  ],
  "bytecode": "0x608060405234801561001057600080fd5b5061245b806100206000396000f3fe608060405234801561001057600080fd5b506004361061009e5760003560e01c80639d1c0bc6116100665780639d1c0bc61461011c578063a87430ba1461012f578063b384abef14610153578063dd2b4bd414610166578063f0d0bc451461018657600080fd5b8063029433f0146100a35780631a8cbcaa146100b85780631f35b51d146100e157806332b633fa146100f45780633ffbd47f14610109575b600080fd5b6100b66100b1366004611dcf565b610199565b005b6100cb6100c6366004611e73565b61046d565b6040516100d89190611f9c565b60405180910390f35b6100b66100ef366004611e73565b6106be565b6100fc6107bc565b6040516100d89190611fb6565b6100b6610117366004612018565b610a37565b6100b661012a366004611e73565b610bef565b61014261013d36600461207c565b611087565b6040516100d89594939291906120a5565b6100b66101613660046120ee565b6111d0565b610179610174366004611e73565b6116a6565b6040516100d89190612110565b6100b6610194366004612209565b611906565b33600081815260036020819052604090912001546001600160a01b0316146101dc5760405162461bcd60e51b81526004016101d3906122a3565b60405180910390fd5b60008681526007602052604090205460ff1661020a5760405162461bcd60e51b81526004016101d3906122cf565b336001600160a01b031660028781548110610227576102276122fc565b60009182526020909120600a909102016006015461010090046001600160a01b0316146102665760405162461bcd60e51b81526004016101d390612312565b60008451116102ab5760405162461bcd60e51b8152602060048201526011602482015270151a5d1b19481a5cc81c995c5d5a5c9959607a1b60448201526064016101d3565b60008351116102f65760405162461bcd60e51b815260206004820152601760248201527611195cd8dc9a5c1d1a5bdb881a5cc81c995c5d5a5c9959604a1b60448201526064016101d3565b60008211801561030557508181115b6103215760405162461bcd60e51b81526004016101d390612357565b600081116103685760405162461bcd60e51b8152602060048201526014602482015273115b99081d1a5b59481a5cc81c995c5d5a5c995960621b60448201526064016101d3565b846002878154811061037c5761037c6122fc565b90600052602060002090600a020160010190805190602001906103a0929190611bd9565b5083600287815481106103b5576103b56122fc565b90600052602060002090600a020160020190805190602001906103d9929190611bd9565b5082600287815481106103ee576103ee6122fc565b90600052602060002090600a02016003019080519060200190610412929190611bd9565b508160028781548110610427576104276122fc565b90600052602060002090600a0201600701819055508060028781548110610450576104506122fc565b90600052602060002090600a020160080181905550505050505050565b610475611c5d565b60028281548110610488576104886122fc565b90600052602060002090600a020160405180610160016040529081600082015481526020016001820180546104bc9061239f565b80601f01602080910402602001604051908101604052809291908181526020018280546104e89061239f565b80156105355780601f1061050a57610100808354040283529160200191610535565b820191906000526020600020905b81548152906001019060200180831161051857829003601f168201915b5050505050815260200160028201805461054e9061239f565b80601f016020809104026020016040519081016040528092919081815260200182805461057a9061239f565b80156105c75780601f1061059c576101008083540402835291602001916105c7565b820191906000526020600020905b8154815290600101906020018083116105aa57829003601f168201915b505050505081526020016003820180546105e09061239f565b80601f016020809104026020016040519081016040528092919081815260200182805461060c9061239f565b80156106595780601f1061062e57610100808354040283529160200191610659565b820191906000526020600020905b81548152906001019060200180831161063c57829003601f168201915b50505091835250506004820154602082015260058201546040820152600682015460ff81161515606083015261010090046001600160a01b03166080820152600782015460a0820152600882015460c082015260099091015460e09091015292915050565b33600081815260036020819052604090912001546001600160a01b0316146106f85760405162461bcd60e51b81526004016101d3906122a3565b60008181526007602052604090205460ff166107265760405162461bcd60e51b81526004016101d3906122cf565b336001600160a01b031660028281548110610743576107436122fc565b60009182526020909120600a909102016006015461010090046001600160a01b0316146107825760405162461bcd60e51b81526004016101d390612312565b600160028281548110610797576107976122fc565b60009182526020909120600a90910201600601805460ff191691151591909117905550565b60606002805480602002602001604051908101604052809291908181526020016000905b82821015610a2e57838290600052602060002090600a0201604051806101600160405290816000820154815260200160018201805461081e9061239f565b80601f016020809104026020016040519081016040528092919081815260200182805461084a9061239f565b80156108975780601f1061086c57610100808354040283529160200191610897565b820191906000526020600020905b81548152906001019060200180831161087a57829003601f168201915b505050505081526020016002820180546108b09061239f565b80601f01602080910402602001604051908101604052809291908181526020018280546108dc9061239f565b80156109295780601f106108fe57610100808354040283529160200191610929565b820191906000526020600020905b81548152906001019060200180831161090c57829003601f168201915b505050505081526020016003820180546109429061239f565b80601f016020809104026020016040519081016040528092919081815260200182805461096e9061239f565b80156109bb5780601f10610990576101008083540402835291602001916109bb565b820191906000526020600020905b81548152906001019060200180831161099e57829003601f168201915b5050509183525050600482015460208083019190915260058301546040830152600683015460ff81161515606084015261010090046001600160a01b03166080830152600783015460a0830152600883015460c083015260099092015460e09091015290825260019290920191016107e0565b50505050905090565b6000815111610a7f5760405162461bcd60e51b8152602060048201526014602482015273119d5b1b1b985b59481a5cc81c995c5d5a5c995960621b60448201526064016101d3565b33600081815260036020819052604090912001546001600160a01b03161415610aea5760405162461bcd60e51b815260206004820152601a60248201527f596f752061726520616c7265616479207265676973746572656400000000000060448201526064016101d3565b610b2c6040518060c0016040528060008152602001606081526020016060815260200160006001600160a01b0316815260200160008152602001606081525090565b60018054906000610b3c836123da565b9091555081526020808201848152604080840185905233606085018190526000908152600384522083518155905180518493610b7f926001850192910190611bd9565b5060408201518051610b9b916002840191602090910190611bd9565b5060608201516003820180546001600160a01b0319166001600160a01b039092169190911790556080820151600482015560a08201518051610be7916005840191602090910190611cc2565b505050505050565b33600081815260036020819052604090912001546001600160a01b031614610c295760405162461bcd60e51b81526004016101d3906122a3565b60008181526007602052604090205460ff16610c575760405162461bcd60e51b81526004016101d3906122cf565b600081815260056020908152604080832033845290915290205460ff1615610cc15760405162461bcd60e51b815260206004820152601a60248201527f596f75206861766520616c726561647920636f6e74657374656400000000000060448201526064016101d3565b4260028281548110610cd557610cd56122fc565b90600052602060002090600a02016008015411610d255760405162461bcd60e51b815260206004820152600e60248201526d141bdb1b081a185cc8195b99195960921b60448201526064016101d3565b4260028281548110610d3957610d396122fc565b90600052602060002090600a02016007015410610d8f5760405162461bcd60e51b8152602060048201526014602482015273141bdb1b081a185cc81b9bdd081cdd185c9d195960621b60448201526064016101d3565b336000908152600360209081526040808320815160c08101909252805482526001810180549293919291840191610dc59061239f565b80601f0160208091040260200160405190810160405280929190818152602001828054610df19061239f565b8015610e3e5780601f10610e1357610100808354040283529160200191610e3e565b820191906000526020600020905b815481529060010190602001808311610e2157829003601f168201915b50505050508152602001600282018054610e579061239f565b80601f0160208091040260200160405190810160405280929190818152602001828054610e839061239f565b8015610ed05780601f10610ea557610100808354040283529160200191610ed0565b820191906000526020600020905b815481529060010190602001808311610eb357829003601f168201915b505050505081526020016003820160009054906101000a90046001600160a01b03166001600160a01b03166001600160a01b031681526020016004820154815260200160058201805480602002602001604051908101604052809291908181526020018280548015610f6b57602002820191906000526020600020905b81546001600160a01b03168152600190910190602001808311610f4d575b5050509190925250505060008381526006602081815260408320805460018181018355918552938290208551949093029092019283558084015180519495508594610fbd938501929190910190611bd9565b5060408201518051610fd9916002840191602090910190611bd9565b5060608201516003820180546001600160a01b0319166001600160a01b039092169190911790556080820151600482015560a08201518051611025916005840191602090910190611cc2565b50505060008281526005602090815260408083203384529091529020805460ff191660011790556002805483908110611060576110606122fc565b6000918252602082206005600a909202010180549161107e836123da565b91905055505050565b600360205260009081526040902080546001820180549192916110a99061239f565b80601f01602080910402602001604051908101604052809291908181526020018280546110d59061239f565b80156111225780601f106110f757610100808354040283529160200191611122565b820191906000526020600020905b81548152906001019060200180831161110557829003601f168201915b5050505050908060020180546111379061239f565b80601f01602080910402602001604051908101604052809291908181526020018280546111639061239f565b80156111b05780601f10611185576101008083540402835291602001916111b0565b820191906000526020600020905b81548152906001019060200180831161119357829003601f168201915b50505050600383015460049093015491926001600160a01b031691905085565b33600081815260036020819052604090912001546001600160a01b03161461120a5760405162461bcd60e51b81526004016101d3906122a3565b60008281526007602052604090205460ff166112385760405162461bcd60e51b81526004016101d3906122cf565b426002838154811061124c5761124c6122fc565b90600052602060002090600a0201600801541161129c5760405162461bcd60e51b815260206004820152600e60248201526d141bdb1b081a185cc8195b99195960921b60448201526064016101d3565b42600283815481106112b0576112b06122fc565b90600052602060002090600a020160070154106113065760405162461bcd60e51b8152602060048201526014602482015273141bdb1b081a185cc81b9bdd081cdd185c9d195960621b60448201526064016101d3565b600082815260046020908152604080832033845290915290205460ff16156113695760405162461bcd60e51b8152602060048201526016602482015275165bdd481a185d9948185b1c9958591e481d9bdd195960521b60448201526064016101d3565b336000908152600360209081526040808320815160c0810190925280548252600181018054929391929184019161139f9061239f565b80601f01602080910402602001604051908101604052809291908181526020018280546113cb9061239f565b80156114185780601f106113ed57610100808354040283529160200191611418565b820191906000526020600020905b8154815290600101906020018083116113fb57829003601f168201915b505050505081526020016002820180546114319061239f565b80601f016020809104026020016040519081016040528092919081815260200182805461145d9061239f565b80156114aa5780601f1061147f576101008083540402835291602001916114aa565b820191906000526020600020905b81548152906001019060200180831161148d57829003601f168201915b505050505081526020016003820160009054906101000a90046001600160a01b03166001600160a01b03166001600160a01b03168152602001600482015481526020016005820180548060200260200160405190810160405280929190818152602001828054801561154557602002820191906000526020600020905b81546001600160a01b03168152600190910190602001808311611527575b5050505050815250509050600660008481526020019081526020016000208281548110611574576115746122fc565b600091825260208220600460069092020101805491611592836123da565b909155505060008381526006602052604090208054839081106115b7576115b76122fc565b600091825260208083206060850180516006949094029091016005018054600180820183559186528386200180546001600160a01b0319166001600160a01b039586161790558785526004835260408086209251909416855291529120805460ff191690911790556002805484908110611633576116336122fc565b6000918252602082206004600a9092020101805491611651836123da565b919050555080606001516001600160a01b03167f06d72643834bbccea11dfeb41d4aa1a5977f5cb34f87719f71daa6b2b76f29aa826040015142604051611699929190612403565b60405180910390a2505050565b60008181526007602052604090205460609060ff166116d75760405162461bcd60e51b81526004016101d3906122cf565b600082815260066020908152604080832080548251818502810185019093528083529193909284015b828210156118fb57838290600052602060002090600602016040518060c00160405290816000820154815260200160018201805461173d9061239f565b80601f01602080910402602001604051908101604052809291908181526020018280546117699061239f565b80156117b65780601f1061178b576101008083540402835291602001916117b6565b820191906000526020600020905b81548152906001019060200180831161179957829003601f168201915b505050505081526020016002820180546117cf9061239f565b80601f01602080910402602001604051908101604052809291908181526020018280546117fb9061239f565b80156118485780601f1061181d57610100808354040283529160200191611848565b820191906000526020600020905b81548152906001019060200180831161182b57829003601f168201915b505050505081526020016003820160009054906101000a90046001600160a01b03166001600160a01b03166001600160a01b0316815260200160048201548152602001600582018054806020026020016040519081016040528092919081815260200182805480156118e357602002820191906000526020600020905b81546001600160a01b031681526001909101906020018083116118c5575b50505050508152505081526020019060010190611700565b505050509050919050565b33600081815260036020819052604090912001546001600160a01b0316146119405760405162461bcd60e51b81526004016101d3906122a3565b60008451116119855760405162461bcd60e51b8152602060048201526011602482015270151a5d1b19481a5cc81c995c5d5a5c9959607a1b60448201526064016101d3565b60008351116119d05760405162461bcd60e51b815260206004820152601760248201527611195cd8dc9a5c1d1a5bdb881a5cc81c995c5d5a5c9959604a1b60448201526064016101d3565b6000821180156119df57508181115b6119fb5760405162461bcd60e51b81526004016101d390612357565b60008111611a425760405162461bcd60e51b8152602060048201526014602482015273115b99081d1a5b59481a5cc81c995c5d5a5c995960621b60448201526064016101d3565b611a4a611c5d565b600080549080611a59836123da565b9091555081526020808201878152604083018790526060830186905261010083018590526101208301849052426101408401523360e08401526002805460018101825560009190915283517f405787fa12a823e0f2b7631cc41b3ba8828b3321ca811111fa75cd3aa3bb5ace600a909202918201908155915180518594611b04937f405787fa12a823e0f2b7631cc41b3ba8828b3321ca811111fa75cd3aa3bb5acf01920190611bd9565b5060408201518051611b20916002840191602090910190611bd9565b5060608201518051611b3c916003840191602090910190611bd9565b506080820151600482015560a0820151600582015560c082015160068201805460e08501516001600160a81b0319909116921515610100600160a81b031916929092176101006001600160a01b0390931683021790558201516007808301919091556101208301516008830155610140909201516009909101559051600090815260209190915260409020805460ff191660011790555050505050565b828054611be59061239f565b90600052602060002090601f016020900481019282611c075760008555611c4d565b82601f10611c2057805160ff1916838001178555611c4d565b82800160010185558215611c4d579182015b82811115611c4d578251825591602001919060010190611c32565b50611c59929150611d17565b5090565b60405180610160016040528060008152602001606081526020016060815260200160608152602001600081526020016000815260200160001515815260200160006001600160a01b031681526020016000815260200160008152602001600081525090565b828054828255906000526020600020908101928215611c4d579160200282015b82811115611c4d57825182546001600160a01b0319166001600160a01b03909116178255602090920191600190910190611ce2565b5b80821115611c595760008155600101611d18565b634e487b7160e01b600052604160045260246000fd5b600082601f830112611d5357600080fd5b813567ffffffffffffffff80821115611d6e57611d6e611d2c565b604051601f8301601f19908116603f01168101908282118183101715611d9657611d96611d2c565b81604052838152866020858801011115611daf57600080fd5b836020870160208301376000602085830101528094505050505092915050565b60008060008060008060c08789031215611de857600080fd5b86359550602087013567ffffffffffffffff80821115611e0757600080fd5b611e138a838b01611d42565b96506040890135915080821115611e2957600080fd5b611e358a838b01611d42565b95506060890135915080821115611e4b57600080fd5b50611e5889828a01611d42565b9350506080870135915060a087013590509295509295509295565b600060208284031215611e8557600080fd5b5035919050565b6000815180845260005b81811015611eb257602081850181015186830182015201611e96565b81811115611ec4576000602083870101525b50601f01601f19169290920160200192915050565b6000610160825184526020830151816020860152611ef982860182611e8c565b91505060408301518482036040860152611f138282611e8c565b91505060608301518482036060860152611f2d8282611e8c565b9150506080830151608085015260a083015160a085015260c0830151611f5760c086018215159052565b5060e0830151611f7260e08601826001600160a01b03169052565b50610100838101519085015261012080840151908501526101409283015192909301919091525090565b602081526000611faf6020830184611ed9565b9392505050565b6000602080830181845280855180835260408601915060408160051b870101925083870160005b8281101561200b57603f19888603018452611ff9858351611ed9565b94509285019290850190600101611fdd565b5092979650505050505050565b6000806040838503121561202b57600080fd5b823567ffffffffffffffff8082111561204357600080fd5b61204f86838701611d42565b9350602085013591508082111561206557600080fd5b5061207285828601611d42565b9150509250929050565b60006020828403121561208e57600080fd5b81356001600160a01b0381168114611faf57600080fd5b85815260a0602082015260006120be60a0830187611e8c565b82810360408401526120d08187611e8c565b6001600160a01b039590951660608401525050608001529392505050565b6000806040838503121561210157600080fd5b50508035926020909101359150565b60006020808301818452808551808352604092508286019150828160051b8701018488016000805b848110156121fa57603f198a8503018652825160c08151865289820151818b88015261216682880182611e8c565b915050888201518682038a88015261217e8282611e8c565b6060848101516001600160a01b03908116918a0191909152608080860151908a015260a094850151898303958a01959095528451808352948d0194879450918d0192505b818410156121e457845181168352938c019360019390930192918c01916121c2565b5050978a01979550505091870191600101612138565b50919998505050505050505050565b600080600080600060a0868803121561222157600080fd5b853567ffffffffffffffff8082111561223957600080fd5b61224589838a01611d42565b9650602088013591508082111561225b57600080fd5b61226789838a01611d42565b9550604088013591508082111561227d57600080fd5b5061228a88828901611d42565b9598949750949560608101359550608001359392505050565b6020808252601290820152712cb7ba9030b932903737ba1030903ab9b2b960711b604082015260600190565b602080825260139082015272141bdb1b08191bd95cc81b9bdd08195e1a5cdd606a1b604082015260600190565b634e487b7160e01b600052603260045260246000fd5b60208082526025908201527f596f7520617265206e6f7420746865206469726563746f72206f662074686973604082015264081c1bdb1b60da1b606082015260800190565b60208082526028908201527f456e642064617465206d7573742062652067726561746572207468616e207374604082015267617274206461746560c01b606082015260800190565b600181811c908216806123b357607f821691505b602082108114156123d457634e487b7160e01b600052602260045260246000fd5b50919050565b60006000198214156123fc57634e487b7160e01b600052601160045260246000fd5b5060010190565b6040815260006124166040830185611e8c565b9050826020830152939250505056fea26469706673582212205a68fa56c4a82dfdce9c4f7fa2ae6fe1b0294f9bc1d12c2f21d08923ca6002c364736f6c634300080b0033",
  "linkReferences": {},
  "deployedLinkReferences": {}
}